{
  "contractName": "CourseLottery",
  "abi": [
    {
      "constant": false,
      "inputs": [
        {
          "name": "_myid",
          "type": "bytes32"
        },
        {
          "name": "_result",
          "type": "string"
        }
      ],
      "name": "__callback",
      "outputs": [],
      "payable": false,
      "stateMutability": "nonpayable",
      "type": "function"
    },
    {
      "constant": true,
      "inputs": [
        {
          "name": "",
          "type": "uint256"
        }
      ],
      "name": "holders",
      "outputs": [
        {
          "name": "",
          "type": "address"
        }
      ],
      "payable": false,
      "stateMutability": "view",
      "type": "function"
    },
    {
      "constant": true,
      "inputs": [],
      "name": "lotteryDuration",
      "outputs": [
        {
          "name": "",
          "type": "uint256"
        }
      ],
      "payable": false,
      "stateMutability": "view",
      "type": "function"
    },
    {
      "constant": false,
      "inputs": [
        {
          "name": "_queryId",
          "type": "bytes32"
        },
        {
          "name": "_result",
          "type": "string"
        },
        {
          "name": "_proof",
          "type": "bytes"
        }
      ],
      "name": "__callback",
      "outputs": [],
      "payable": false,
      "stateMutability": "nonpayable",
      "type": "function"
    },
    {
      "constant": true,
      "inputs": [],
      "name": "rand",
      "outputs": [
        {
          "name": "",
          "type": "bool"
        }
      ],
      "payable": false,
      "stateMutability": "view",
      "type": "function"
    },
    {
      "constant": true,
      "inputs": [],
      "name": "addressLotteryOwner",
      "outputs": [
        {
          "name": "",
          "type": "address"
        }
      ],
      "payable": false,
      "stateMutability": "view",
      "type": "function"
    },
    {
      "constant": true,
      "inputs": [],
      "name": "lotteryEnded",
      "outputs": [
        {
          "name": "",
          "type": "bool"
        }
      ],
      "payable": false,
      "stateMutability": "view",
      "type": "function"
    },
    {
      "constant": true,
      "inputs": [],
      "name": "random",
      "outputs": [
        {
          "name": "",
          "type": "uint256"
        }
      ],
      "payable": false,
      "stateMutability": "view",
      "type": "function"
    },
    {
      "constant": false,
      "inputs": [],
      "name": "renounceOwnership",
      "outputs": [],
      "payable": false,
      "stateMutability": "nonpayable",
      "type": "function"
    },
    {
      "constant": true,
      "inputs": [
        {
          "name": "",
          "type": "address"
        }
      ],
      "name": "ticketHolders",
      "outputs": [
        {
          "name": "",
          "type": "uint256"
        }
      ],
      "payable": false,
      "stateMutability": "view",
      "type": "function"
    },
    {
      "constant": true,
      "inputs": [],
      "name": "contractBalance",
      "outputs": [
        {
          "name": "",
          "type": "uint256"
        }
      ],
      "payable": false,
      "stateMutability": "view",
      "type": "function"
    },
    {
      "constant": true,
      "inputs": [],
      "name": "owner",
      "outputs": [
        {
          "name": "",
          "type": "address"
        }
      ],
      "payable": false,
      "stateMutability": "view",
      "type": "function"
    },
    {
      "constant": true,
      "inputs": [
        {
          "name": "",
          "type": "uint256"
        }
      ],
      "name": "prevWinners",
      "outputs": [
        {
          "name": "",
          "type": "address"
        }
      ],
      "payable": false,
      "stateMutability": "view",
      "type": "function"
    },
    {
      "constant": true,
      "inputs": [],
      "name": "isOwner",
      "outputs": [
        {
          "name": "",
          "type": "bool"
        }
      ],
      "payable": false,
      "stateMutability": "view",
      "type": "function"
    },
    {
      "constant": true,
      "inputs": [],
      "name": "totalEthWon",
      "outputs": [
        {
          "name": "",
          "type": "uint256"
        }
      ],
      "payable": false,
      "stateMutability": "view",
      "type": "function"
    },
    {
      "constant": true,
      "inputs": [],
      "name": "ticketsIssued",
      "outputs": [
        {
          "name": "",
          "type": "uint256"
        }
      ],
      "payable": false,
      "stateMutability": "view",
      "type": "function"
    },
    {
      "constant": false,
      "inputs": [],
      "name": "update",
      "outputs": [],
      "payable": true,
      "stateMutability": "payable",
      "type": "function"
    },
    {
      "constant": true,
      "inputs": [],
      "name": "lotteryStart",
      "outputs": [
        {
          "name": "",
          "type": "uint256"
        }
      ],
      "payable": false,
      "stateMutability": "view",
      "type": "function"
    },
    {
      "constant": false,
      "inputs": [
        {
          "name": "newOwner",
          "type": "address"
        }
      ],
      "name": "transferOwnership",
      "outputs": [],
      "payable": false,
      "stateMutability": "nonpayable",
      "type": "function"
    },
    {
      "inputs": [],
      "payable": false,
      "stateMutability": "nonpayable",
      "type": "constructor"
    },
    {
      "payable": true,
      "stateMutability": "payable",
      "type": "fallback"
    },
    {
      "anonymous": false,
      "inputs": [
        {
          "indexed": true,
          "name": "_from",
          "type": "address"
        },
        {
          "indexed": false,
          "name": "_quantity",
          "type": "uint256"
        }
      ],
      "name": "TicketsBought",
      "type": "event"
    },
    {
      "anonymous": false,
      "inputs": [
        {
          "indexed": false,
          "name": "_to",
          "type": "address"
        },
        {
          "indexed": false,
          "name": "_winnings",
          "type": "uint256"
        }
      ],
      "name": "AwardWinnings",
      "type": "event"
    },
    {
      "anonymous": false,
      "inputs": [],
      "name": "ResetLottery",
      "type": "event"
    },
    {
      "anonymous": false,
      "inputs": [
        {
          "indexed": true,
          "name": "previousLotteryOwner",
          "type": "address"
        },
        {
          "indexed": true,
          "name": "newLotteryOwner",
          "type": "address"
        }
      ],
      "name": "ChangeAddressOfLotteryOwner",
      "type": "event"
    },
    {
      "anonymous": false,
      "inputs": [
        {
          "indexed": false,
          "name": "description",
          "type": "string"
        }
      ],
      "name": "LogNewProvableQuery",
      "type": "event"
    },
    {
      "anonymous": false,
      "inputs": [
        {
          "indexed": false,
          "name": "randomNumber",
          "type": "uint256"
        }
      ],
      "name": "generatedRandomNumber",
      "type": "event"
    },
    {
      "anonymous": false,
      "inputs": [
        {
          "indexed": true,
          "name": "previousOwner",
          "type": "address"
        },
        {
          "indexed": true,
          "name": "newOwner",
          "type": "address"
        }
      ],
      "name": "OwnershipTransferred",
      "type": "event"
    },
    {
      "constant": false,
      "inputs": [],
      "name": "buyTickets",
      "outputs": [
        {
          "name": "success",
          "type": "bool"
        }
      ],
      "payable": true,
      "stateMutability": "payable",
      "type": "function"
    },
    {
      "constant": false,
      "inputs": [
        {
          "name": "_addressLotteryOwner",
          "type": "address"
        }
      ],
      "name": "NewAccountOfLotteryOwner",
      "outputs": [],
      "payable": false,
      "stateMutability": "nonpayable",
      "type": "function"
    },
    {
      "constant": false,
      "inputs": [],
      "name": "GetRandomNumber",
      "outputs": [],
      "payable": false,
      "stateMutability": "nonpayable",
      "type": "function"
    },
    {
      "constant": false,
      "inputs": [],
      "name": "generateWinners",
      "outputs": [
        {
          "name": "winningTicket",
          "type": "uint256"
        }
      ],
      "payable": false,
      "stateMutability": "nonpayable",
      "type": "function"
    },
    {
      "constant": true,
      "inputs": [
        {
          "name": "_account",
          "type": "address"
        }
      ],
      "name": "getTicketBalance",
      "outputs": [
        {
          "name": "balance",
          "type": "uint256"
        }
      ],
      "payable": false,
      "stateMutability": "view",
      "type": "function"
    },
    {
      "constant": true,
      "inputs": [],
      "name": "getBalance",
      "outputs": [
        {
          "name": "",
          "type": "uint256"
        }
      ],
      "payable": false,
      "stateMutability": "view",
      "type": "function"
    }
  ],
  "bytecode": "0x60806040527365d069d418e7d56bfc2c1d6d78c5dad8a32d1882600d60006101000a81548173ffffffffffffffffffffffffffffffffffffffff021916908373ffffffffffffffffffffffffffffffffffffffff1602179055503480156200006657600080fd5b50336000806101000a81548173ffffffffffffffffffffffffffffffffffffffff021916908373ffffffffffffffffffffffffffffffffffffffff1602179055506000809054906101000a900473ffffffffffffffffffffffffffffffffffffffff1673ffffffffffffffffffffffffffffffffffffffff16600073ffffffffffffffffffffffffffffffffffffffff167f8be0079c531659141344cd1fd0a4f28419497f9722a3daafe3b4186f6b6457e060405160405180910390a36200016060307f01000000000000000000000000000000000000000000000000000000000000000262000198640100000000026401000000009004565b6200017962000566640100000000026401000000009004565b6000600b8190555042600e8190555062015180600f8190555062002827565b600073ffffffffffffffffffffffffffffffffffffffff16600260009054906101000a900473ffffffffffffffffffffffffffffffffffffffff1673ffffffffffffffffffffffffffffffffffffffff16148062000231575060006200022f600260009054906101000a900473ffffffffffffffffffffffffffffffffffffffff1662000623640100000000026401000000009004565b145b1562000254576200025260006200062e640100000000026401000000009004565b505b600260009054906101000a900473ffffffffffffffffffffffffffffffffffffffff1673ffffffffffffffffffffffffffffffffffffffff166338cc48316040518163ffffffff167c0100000000000000000000000000000000000000000000000000000000028152600401602060405180830381600087803b158015620002db57600080fd5b505af1158015620002f0573d6000803e3d6000fd5b505050506040513d60208110156200030757600080fd5b810190808051906020019092919050505073ffffffffffffffffffffffffffffffffffffffff16600160009054906101000a900473ffffffffffffffffffffffffffffffffffffffff1673ffffffffffffffffffffffffffffffffffffffff161415156200047457600260009054906101000a900473ffffffffffffffffffffffffffffffffffffffff1673ffffffffffffffffffffffffffffffffffffffff166338cc48316040518163ffffffff167c0100000000000000000000000000000000000000000000000000000000028152600401602060405180830381600087803b158015620003f657600080fd5b505af11580156200040b573d6000803e3d6000fd5b505050506040513d60208110156200042257600080fd5b8101908080519060200190929190505050600160006101000a81548173ffffffffffffffffffffffffffffffffffffffff021916908373ffffffffffffffffffffffffffffffffffffffff1602179055505b600160009054906101000a900473ffffffffffffffffffffffffffffffffffffffff1673ffffffffffffffffffffffffffffffffffffffff1663688dcfd7826040518263ffffffff167c010000000000000000000000000000000000000000000000000000000002815260040180827effffffffffffffffffffffffffffffffffffffffffffffffffffffffffffff19167effffffffffffffffffffffffffffffffffffffffffffffffffffffffffffff19168152602001915050600060405180830381600087803b1580156200054a57600080fd5b505af11580156200055f573d6000803e3d6000fd5b5050505050565b6000809050600062030d409050620005908260078362000650640100000000026401000000009004565b507fc4dc360d0a9c0677a3379ae0a3d81e887f761e65fdf3d7e00859d1bcd3c473896040518080602001828103825260368152602001807f50726f7661626c65207175657279207761732073656e742c207374616e64696e81526020017f6720627920666f722074686520616e737765722e2e2e0000000000000000000081525060400191505060405180910390a15050565b6000813b9050919050565b60006200064962000c7a640100000000026401000000009004565b9050919050565b6000808311801562000663575060208311155b15156200066f57600080fd5b600a84029350606060016040519080825280601f01601f191660200182016040528015620006ac5781602001600182028038833980820191505090505b509050837f010000000000000000000000000000000000000000000000000000000000000002816000815181101515620006e257fe5b9060200101907effffffffffffffffffffffffffffffffffffffffffffffffffffffffffffff1916908160001a905350606060206040519080825280601f01601f191660200182016040528015620007495781602001600182028038833980820191505090505b509050606060206040519080825280601f01601f191660200182016040528015620007835781602001600182028038833980820191505090505b5090506000620007a1620012be640100000000026401000000009004565b905060208352424118600143034018602084015260208252806020830152606060206040519080825280601f01601f191660200182016040528015620007f65781602001600182028038833980820191505090505b509050886020820152606060086040519080825280601f01601f191660200182016040528015620008365781602001600182028038833980820191505090505b5090506200085a826018600884600062001662640100000000026401000000009004565b506200086562002735565b6080604051908101604052808781526020018881526020018681526020018481525090506000620008dc6040805190810160405280600681526020017f72616e646f6d0000000000000000000000000000000000000000000000000000815250838c620016c6640100000000026401000000009004565b9050606060086040519080825280601f01601f191660200182016040528015620009155781602001600182028038833980820191505090505b50905060208401517f0100000000000000000000000000000000000000000000000000000000000000810460278301537e01000000000000000000000000000000000000000000000000000000000000810460268301537d010000000000000000000000000000000000000000000000000000000000810460258301537c0100000000000000000000000000000000000000000000000000000000810460248301537b01000000000000000000000000000000000000000000000000000000810460238301537a01000000000000000000000000000000000000000000000000000081046022830153790100000000000000000000000000000000000000000000000000810460218301537801000000000000000000000000000000000000000000000000810460208301535062000c67828285600160048110151562000a5857fe5b6020020151600287600060048110151562000a6f57fe5b60200201516040518082805190602001908083835b60208310151562000aab578051825260208201915060208101905060208303925062000a84565b6001836020036101000a038019825116818451168082178552505050505050905001915050602060405180830381855afa15801562000aee573d6000803e3d6000fd5b5050506040513d602081101562000b0457600080fd5b810190808051906020019092919050505087600260048110151562000b2557fe5b60200201516040516020018085805190602001908083835b60208310151562000b64578051825260208201915060208101905060208303925062000b3d565b6001836020036101000a03801982511681845116808217855250505050505090500184805190602001908083835b60208310151562000bb9578051825260208201915060208101905060208303925062000b92565b6001836020036101000a03801982511681845116808217855250505050505090500183815260200182805190602001908083835b60208310151562000c14578051825260208201915060208101905060208303925062000bed565b6001836020036101000a0380198251168184511680821785525050505050509050019450505050506040516020818303038152906040528051906020012062001acd640100000000026401000000009004565b8199505050505050505050509392505050565b60008062000cab731d3b2638a7cc9f2cb3d298a3da7a90b67e5506ed62000623640100000000026401000000009004565b111562000d6057731d3b2638a7cc9f2cb3d298a3da7a90b67e5506ed600260006101000a81548173ffffffffffffffffffffffffffffffffffffffff021916908373ffffffffffffffffffffffffffffffffffffffff16021790555062000d566040805190810160405280600b81526020017f6574685f6d61696e6e657400000000000000000000000000000000000000000081525062001ae9640100000000026401000000009004565b60019050620012bb565b600062000d9073c03a2615d5efaf5f49f60b7bb6583eaec212fdf162000623640100000000026401000000009004565b111562000e455773c03a2615d5efaf5f49f60b7bb6583eaec212fdf1600260006101000a81548173ffffffffffffffffffffffffffffffffffffffff021916908373ffffffffffffffffffffffffffffffffffffffff16021790555062000e3b6040805190810160405280600c81526020017f6574685f726f707374656e33000000000000000000000000000000000000000081525062001ae9640100000000026401000000009004565b60019050620012bb565b600062000e7573b7a07bcf2ba2f2703b24c0691b5278999c59ac7e62000623640100000000026401000000009004565b111562000f2a5773b7a07bcf2ba2f2703b24c0691b5278999c59ac7e600260006101000a81548173ffffffffffffffffffffffffffffffffffffffff021916908373ffffffffffffffffffffffffffffffffffffffff16021790555062000f206040805190810160405280600981526020017f6574685f6b6f76616e000000000000000000000000000000000000000000000081525062001ae9640100000000026401000000009004565b60019050620012bb565b600062000f5a73146500cfd35b22e4a392fe0adc06de1a1368ed4862000623640100000000026401000000009004565b11156200100f5773146500cfd35b22e4a392fe0adc06de1a1368ed48600260006101000a81548173ffffffffffffffffffffffffffffffffffffffff021916908373ffffffffffffffffffffffffffffffffffffffff160217905550620010056040805190810160405280600b81526020017f6574685f72696e6b65627900000000000000000000000000000000000000000081525062001ae9640100000000026401000000009004565b60019050620012bb565b60006200103f73a2998efd205fb9d4b4963afb70778d6354ad3a4162000623640100000000026401000000009004565b1115620010f45773a2998efd205fb9d4b4963afb70778d6354ad3a41600260006101000a81548173ffffffffffffffffffffffffffffffffffffffff021916908373ffffffffffffffffffffffffffffffffffffffff160217905550620010ea6040805190810160405280600a81526020017f6574685f676f65726c690000000000000000000000000000000000000000000081525062001ae9640100000000026401000000009004565b60019050620012bb565b600062001124736f485c8bf6fc43ea212e93bbf8ce046c7f1cb47562000623640100000000026401000000009004565b11156200118a57736f485c8bf6fc43ea212e93bbf8ce046c7f1cb475600260006101000a81548173ffffffffffffffffffffffffffffffffffffffff021916908373ffffffffffffffffffffffffffffffffffffffff16021790555060019050620012bb565b6000620011ba7320e12a1f859b3feae5fb2a0a32c18f5a65555bbf62000623640100000000026401000000009004565b111562001220577320e12a1f859b3feae5fb2a0a32c18f5a65555bbf600260006101000a81548173ffffffffffffffffffffffffffffffffffffffff021916908373ffffffffffffffffffffffffffffffffffffffff16021790555060019050620012bb565b6000620012507351efaf4c8b3c9afbd5ab9f4bbc82784ab6ef8faa62000623640100000000026401000000009004565b1115620012b6577351efaf4c8b3c9afbd5ab9f4bbc82784ab6ef8faa600260006101000a81548173ffffffffffffffffffffffffffffffffffffffff021916908373ffffffffffffffffffffffffffffffffffffffff16021790555060019050620012bb565b600090505b90565b60008073ffffffffffffffffffffffffffffffffffffffff16600260009054906101000a900473ffffffffffffffffffffffffffffffffffffffff1673ffffffffffffffffffffffffffffffffffffffff161480620013585750600062001356600260009054906101000a900473ffffffffffffffffffffffffffffffffffffffff1662000623640100000000026401000000009004565b145b156200137b576200137960006200062e640100000000026401000000009004565b505b600260009054906101000a900473ffffffffffffffffffffffffffffffffffffffff1673ffffffffffffffffffffffffffffffffffffffff166338cc48316040518163ffffffff167c0100000000000000000000000000000000000000000000000000000000028152600401602060405180830381600087803b1580156200140257600080fd5b505af115801562001417573d6000803e3d6000fd5b505050506040513d60208110156200142e57600080fd5b810190808051906020019092919050505073ffffffffffffffffffffffffffffffffffffffff16600160009054906101000a900473ffffffffffffffffffffffffffffffffffffffff1673ffffffffffffffffffffffffffffffffffffffff161415156200159b57600260009054906101000a900473ffffffffffffffffffffffffffffffffffffffff1673ffffffffffffffffffffffffffffffffffffffff166338cc48316040518163ffffffff167c0100000000000000000000000000000000000000000000000000000000028152600401602060405180830381600087803b1580156200151d57600080fd5b505af115801562001532573d6000803e3d6000fd5b505050506040513d60208110156200154957600080fd5b8101908080519060200190929190505050600160006101000a81548173ffffffffffffffffffffffffffffffffffffffff021916908373ffffffffffffffffffffffffffffffffffffffff1602179055505b600160009054906101000a900473ffffffffffffffffffffffffffffffffffffffff1673ffffffffffffffffffffffffffffffffffffffff1663abaa5f3e6040518163ffffffff167c010000000000000000000000000000000000000000000000000000000002815260040160206040518083038186803b1580156200162057600080fd5b505afa15801562001635573d6000803e3d6000fd5b505050506040513d60208110156200164c57600080fd5b8101908080519060200190929190505050905090565b606060008285019050808451101515156200167c57600080fd5b600086602001905060008460200190505b868860200101821015620016b757818901518082880152506020820191506020810190506200168d565b85935050505095945050505050565b60008073ffffffffffffffffffffffffffffffffffffffff16600260009054906101000a900473ffffffffffffffffffffffffffffffffffffffff1673ffffffffffffffffffffffffffffffffffffffff16148062001760575060006200175e600260009054906101000a900473ffffffffffffffffffffffffffffffffffffffff1662000623640100000000026401000000009004565b145b1562001783576200178160006200062e640100000000026401000000009004565b505b600260009054906101000a900473ffffffffffffffffffffffffffffffffffffffff1673ffffffffffffffffffffffffffffffffffffffff166338cc48316040518163ffffffff167c0100000000000000000000000000000000000000000000000000000000028152600401602060405180830381600087803b1580156200180a57600080fd5b505af11580156200181f573d6000803e3d6000fd5b505050506040513d60208110156200183657600080fd5b810190808051906020019092919050505073ffffffffffffffffffffffffffffffffffffffff16600160009054906101000a900473ffffffffffffffffffffffffffffffffffffffff1673ffffffffffffffffffffffffffffffffffffffff16141515620019a357600260009054906101000a900473ffffffffffffffffffffffffffffffffffffffff1673ffffffffffffffffffffffffffffffffffffffff166338cc48316040518163ffffffff167c0100000000000000000000000000000000000000000000000000000000028152600401602060405180830381600087803b1580156200192557600080fd5b505af11580156200193a573d6000803e3d6000fd5b505050506040513d60208110156200195157600080fd5b8101908080519060200190929190505050600160006101000a81548173ffffffffffffffffffffffffffffffffffffffff021916908373ffffffffffffffffffffffffffffffffffffffff1602179055505b60606004604051908082528060200260200182016040528015620019dc57816020015b6060815260200190600190039081620019c65790505b509050836000600481101515620019ef57fe5b602002015181600081518110151562001a0457fe5b9060200190602002018190525083600160048110151562001a2157fe5b602002015181600181518110151562001a3657fe5b9060200190602002018190525083600260048110151562001a5357fe5b602002015181600281518110151562001a6857fe5b9060200190602002018190525083600360048110151562001a8557fe5b602002015181600381518110151562001a9a57fe5b9060200190602002018190525062001ac385828562001b05640100000000026401000000009004565b9150509392505050565b8060046000848152602001908152602001600020819055505050565b806003908051906020019062001b019291906200275e565b5050565b60008073ffffffffffffffffffffffffffffffffffffffff16600260009054906101000a900473ffffffffffffffffffffffffffffffffffffffff1673ffffffffffffffffffffffffffffffffffffffff16148062001b9f5750600062001b9d600260009054906101000a900473ffffffffffffffffffffffffffffffffffffffff1662000623640100000000026401000000009004565b145b1562001bc25762001bc060006200062e640100000000026401000000009004565b505b600260009054906101000a900473ffffffffffffffffffffffffffffffffffffffff1673ffffffffffffffffffffffffffffffffffffffff166338cc48316040518163ffffffff167c0100000000000000000000000000000000000000000000000000000000028152600401602060405180830381600087803b15801562001c4957600080fd5b505af115801562001c5e573d6000803e3d6000fd5b505050506040513d602081101562001c7557600080fd5b810190808051906020019092919050505073ffffffffffffffffffffffffffffffffffffffff16600160009054906101000a900473ffffffffffffffffffffffffffffffffffffffff1673ffffffffffffffffffffffffffffffffffffffff1614151562001de257600260009054906101000a900473ffffffffffffffffffffffffffffffffffffffff1673ffffffffffffffffffffffffffffffffffffffff166338cc48316040518163ffffffff167c0100000000000000000000000000000000000000000000000000000000028152600401602060405180830381600087803b15801562001d6457600080fd5b505af115801562001d79573d6000803e3d6000fd5b505050506040513d602081101562001d9057600080fd5b8101908080519060200190929190505050600160006101000a81548173ffffffffffffffffffffffffffffffffffffffff021916908373ffffffffffffffffffffffffffffffffffffffff1602179055505b6000600160009054906101000a900473ffffffffffffffffffffffffffffffffffffffff1673ffffffffffffffffffffffffffffffffffffffff16632ef3accc86856040518363ffffffff167c01000000000000000000000000000000000000000000000000000000000281526004018080602001838152602001828103825284818151815260200191508051906020019080838360005b8381101562001e9757808201518184015260208101905062001e7a565b50505050905090810190601f16801562001ec55780820380516001836020036101000a031916815260200191505b509350505050602060405180830381600087803b15801562001ee657600080fd5b505af115801562001efb573d6000803e3d6000fd5b505050506040513d602081101562001f1257600080fd5b81019080805190602001909291905050509050823a02670de0b6b3a76400000181111562001f4857600060010291505062002124565b606062001f64856200212b640100000000026401000000009004565b9050600160009054906101000a900473ffffffffffffffffffffffffffffffffffffffff1673ffffffffffffffffffffffffffffffffffffffff1663c55c1cb68360008985896040518663ffffffff167c0100000000000000000000000000000000000000000000000000000000028152600401808581526020018060200180602001848152602001838103835286818151815260200191508051906020019080838360005b83811015620020275780820151818401526020810190506200200a565b50505050905090810190601f168015620020555780820380516001836020036101000a031916815260200191505b50838103825285818151815260200191508051906020019080838360005b838110156200209057808201518184015260208101905062002073565b50505050905090810190601f168015620020be5780820380516001836020036101000a031916815260200191505b5096505050505050506020604051808303818588803b158015620020e157600080fd5b505af1158015620020f6573d6000803e3d6000fd5b50505050506040513d60208110156200210e57600080fd5b8101908080519060200190929190505050925050505b9392505050565b60606200214662002217640100000000026401000000009004565b62002150620027e5565b6200217281610400620022236401000000000262004b35176401000000009004565b6200219181620022766401000000000262004b85176401000000009004565b60008090505b8351811015620021ea57620021dc8482815181101515620021b457fe5b9060200190602002015183620022956401000000000262004b93179091906401000000009004565b808060010191505062002197565b506200220a81620022db6401000000000262004bb8176401000000009004565b8060000151915050919050565b60405180590338823950565b600081905060006020828115156200223757fe5b0614151562002256576020818115156200224d57fe5b06602003810190505b808360200181815250506040518084526000815281810160405250505050565b62002292816004620022fa640100000000026401000000009004565b50565b620022b382600283516200232e640100000000026401000000009004565b620022d68183620025206401000000000262004d43179091906401000000009004565b505050565b620022f7816007620022fa640100000000026401000000009004565b50565b6200232a601f60058360ff169060020a021783620025f46401000000000262004df0179091906401000000009004565b5050565b60178111151562002371576200236b8160058460ff169060020a0260ff161784620025f46401000000000262004df0179091906401000000009004565b6200251b565b60ff81111515620023d957620023ac601860058460ff169060020a021784620025f46401000000000262004df0179091906401000000009004565b620023d281600185620026466401000000000262004e3017909291906401000000009004565b506200251a565b61ffff81111515620024425762002415601960058460ff169060020a021784620025f46401000000000262004df0179091906401000000009004565b6200243b81600285620026466401000000000262004e3017909291906401000000009004565b5062002519565b63ffffffff81111515620024ad5762002480601a60058460ff169060020a021784620025f46401000000000262004df0179091906401000000009004565b620024a681600485620026466401000000000262004e3017909291906401000000009004565b5062002518565b67ffffffffffffffff811115156200251757620024ef601b60058460ff169060020a021784620025f46401000000000262004df0179091906401000000009004565b6200251581600885620026466401000000000262004e3017909291906401000000009004565b505b5b5b5b5b505050565b6200252a620027e5565b826020015183600001515183510111156200257d576200257c8360026200256686602001518651620026d2640100000000026401000000009004565b02620026f0640100000000026401000000009004565b5b60008060008451905085518051602081830101945086518101825260208701935050505b602081101515620025c85781518352602083019250602082019150602081039050620025a1565b60006001826020036101000a039050801983511681855116818117865250508694505050505092915050565b816020015160018360000151510111156200262c576200262b826002846020015102620026f0640100000000026401000000009004565b5b815180516020818301018381536001820183525050505050565b62002650620027e5565b836020015184600001515183011115620026a157620026a08460026200268a876020015186620026d2640100000000026401000000009004565b02620026f0640100000000026401000000009004565b5b60006001836101000a0390508451805184818301018684198251161781528582018352505050849150509392505050565b600081831115620026e657829050620026ea565b8190505b92915050565b60608260000151905062002714838362002223640100000000026401000000009004565b6200272f838262002520640100000000026401000000009004565b50505050565b6080604051908101604052806004905b6060815260200190600190039081620027455790505090565b828054600181600116156101000203166002900490600052602060002090601f016020900481019282601f10620027a157805160ff1916838001178555620027d2565b82800160010185558215620027d2579182015b82811115620027d1578251825591602001919060010190620027b4565b5b509050620027e19190620027ff565b5090565b604080519081016040528060608152602001600081525090565b6200282491905b808211156200282057600081600090555060010162002806565b5090565b90565b614fe980620028376000396000f3fe608060405260043610610149576000357c0100000000000000000000000000000000000000000000000000000000900463ffffffff16806312065fe01461015457806327dc297e1461017f5780632a11ced0146102515780632d97902f146102cc57806338bbfa50146102f75780633b3dca76146104605780634af182061461048f578063586abc5a146104e65780635ec01e4d14610515578063715018a614610540578063734d13b8146105575780638b7afe2e146105bc5780638da5cb5b146105e75780638e2ea3aa1461063e5780638f32d59b146106b957806395bc20ea146106e85780639dbb616f14610713578063a2e620451461073e578063c819982614610748578063cd8cc8441461076a578063d28d250a14610795578063e5da378f146107e6578063f2fde38b1461084b578063fb5274e51461089c578063fb8c7420146108c7575b6101516108de565b50005b34801561016057600080fd5b50610169610ad4565b6040518082815260200191505060405180910390f35b34801561018b57600080fd5b5061024f600480360360408110156101a257600080fd5b8101908080359060200190929190803590602001906401000000008111156101c957600080fd5b8201836020820111156101db57600080fd5b803590602001918460018302840111640100000000831117156101fd57600080fd5b91908080601f016020809104026020016040519081016040528093929190818152602001838380828437600081840152601f19601f820116905080830192505050505050509192919290505050610af3565b005b34801561025d57600080fd5b5061028a6004803603602081101561027457600080fd5b8101908080359060200190929190505050610b36565b604051808273ffffffffffffffffffffffffffffffffffffffff1673ffffffffffffffffffffffffffffffffffffffff16815260200191505060405180910390f35b3480156102d857600080fd5b506102e1610b74565b6040518082815260200191505060405180910390f35b34801561030357600080fd5b5061045e6004803603606081101561031a57600080fd5b81019080803590602001909291908035906020019064010000000081111561034157600080fd5b82018360208201111561035357600080fd5b8035906020019184600183028401116401000000008311171561037557600080fd5b91908080601f016020809104026020016040519081016040528093929190818152602001838380828437600081840152601f19601f820116905080830192505050505050509192919290803590602001906401000000008111156103d857600080fd5b8201836020820111156103ea57600080fd5b8035906020019184600183028401116401000000008311171561040c57600080fd5b91908080601f016020809104026020016040519081016040528093929190818152602001838380828437600081840152601f19601f820116905080830192505050505050509192919290505050610b7a565b005b34801561046c57600080fd5b50610475610cb1565b604051808215151515815260200191505060405180910390f35b34801561049b57600080fd5b506104a4610cc4565b604051808273ffffffffffffffffffffffffffffffffffffffff1673ffffffffffffffffffffffffffffffffffffffff16815260200191505060405180910390f35b3480156104f257600080fd5b506104fb610cea565b604051808215151515815260200191505060405180910390f35b34801561052157600080fd5b5061052a610cfd565b6040518082815260200191505060405180910390f35b34801561054c57600080fd5b50610555610d03565b005b34801561056357600080fd5b506105a66004803603602081101561057a57600080fd5b81019080803573ffffffffffffffffffffffffffffffffffffffff169060200190929190505050610e3e565b6040518082815260200191505060405180910390f35b3480156105c857600080fd5b506105d1610e56565b6040518082815260200191505060405180910390f35b3480156105f357600080fd5b506105fc610e5c565b604051808273ffffffffffffffffffffffffffffffffffffffff1673ffffffffffffffffffffffffffffffffffffffff16815260200191505060405180910390f35b34801561064a57600080fd5b506106776004803603602081101561066157600080fd5b8101908080359060200190929190505050610e85565b604051808273ffffffffffffffffffffffffffffffffffffffff1673ffffffffffffffffffffffffffffffffffffffff16815260200191505060405180910390f35b3480156106c557600080fd5b506106ce610ec3565b604051808215151515815260200191505060405180910390f35b3480156106f457600080fd5b506106fd610f1a565b6040518082815260200191505060405180910390f35b34801561071f57600080fd5b50610728610f20565b6040518082815260200191505060405180910390f35b610746610f26565b005b6107506108de565b604051808215151515815260200191505060405180910390f35b34801561077657600080fd5b5061077f610fd2565b6040518082815260200191505060405180910390f35b3480156107a157600080fd5b506107e4600480360360208110156107b857600080fd5b81019080803573ffffffffffffffffffffffffffffffffffffffff169060200190929190505050610fd8565b005b3480156107f257600080fd5b506108356004803603602081101561080957600080fd5b81019080803573ffffffffffffffffffffffffffffffffffffffff1690602001909291905050506111df565b6040518082815260200191505060405180910390f35b34801561085757600080fd5b5061089a6004803603602081101561086e57600080fd5b81019080803573ffffffffffffffffffffffffffffffffffffffff169060200190929190505050611228565b005b3480156108a857600080fd5b506108b16112b0565b6040518082815260200191505060405180910390f35b3480156108d357600080fd5b506108dc61141d565b005b6000600f54600e5401421015156108f457600080fd5b6000601260006101000a81548160ff02191690831515021790555066038d7ea4c680003481151561092157fe5b04600760003373ffffffffffffffffffffffffffffffffffffffff1673ffffffffffffffffffffffffffffffffffffffff168152602001908152602001600020819055506109b9600760003373ffffffffffffffffffffffffffffffffffffffff1673ffffffffffffffffffffffffffffffffffffffff16815260200190815260200160002054600b5461145690919063ffffffff16565b600b8190555060083390806001815401808255809150509060018203906000526020600020016000909192909190916101000a81548173ffffffffffffffffffffffffffffffffffffffff021916908373ffffffffffffffffffffffffffffffffffffffff16021790555050610a3a34600c5461145690919063ffffffff16565b600c819055503373ffffffffffffffffffffffffffffffffffffffff167fb24ee662b0a257d0321d324e737d2507fbe45df8af8d0da951f630f3754eb6a0600760003373ffffffffffffffffffffffffffffffffffffffff1673ffffffffffffffffffffffffffffffffffffffff168152602001908152602001600020546040518082815260200191505060405180910390a26001905090565b60003073ffffffffffffffffffffffffffffffffffffffff1631905090565b610b32828260006040519080825280601f01601f191660200182016040528015610b2c5781602001600182028038833980820191505090505b50610b7a565b5050565b600881815481101515610b4557fe5b906000526020600020016000915054906101000a900473ffffffffffffffffffffffffffffffffffffffff1681565b600f5481565b610b826114e0565b73ffffffffffffffffffffffffffffffffffffffff163373ffffffffffffffffffffffffffffffffffffffff16141515610bbb57600080fd5b6000610bc8848484611856565b60ff16141515610bd757610cac565b6000600160076101000a039050600081846040516020018082805190602001908083835b602083101515610c205780518252602082019150602081019050602083039250610bfb565b6001836020036101000a0380198251168184511680821785525050505050509050019150506040516020818303038152906040528051906020012060019004811515610c6857fe5b069050806006819055507fc13d60fe9dffdb6908d2d446cd18134373a51db0738ee04f296eeb9128121cbc816040518082815260200191505060405180910390a150505b505050565b601260009054906101000a900460ff1681565b600d60009054906101000a900473ffffffffffffffffffffffffffffffffffffffff1681565b601060009054906101000a900460ff1681565b60065481565b610d0b610ec3565b1515610d7f576040517f08c379a00000000000000000000000000000000000000000000000000000000081526004018080602001828103825260208152602001807f4f776e61626c653a2063616c6c6572206973206e6f7420746865206f776e657281525060200191505060405180910390fd5b600073ffffffffffffffffffffffffffffffffffffffff166000809054906101000a900473ffffffffffffffffffffffffffffffffffffffff1673ffffffffffffffffffffffffffffffffffffffff167f8be0079c531659141344cd1fd0a4f28419497f9722a3daafe3b4186f6b6457e060405160405180910390a360008060006101000a81548173ffffffffffffffffffffffffffffffffffffffff021916908373ffffffffffffffffffffffffffffffffffffffff160217905550565b60076020528060005260406000206000915090505481565b600c5481565b60008060009054906101000a900473ffffffffffffffffffffffffffffffffffffffff16905090565b600981815481101515610e9457fe5b906000526020600020016000915054906101000a900473ffffffffffffffffffffffffffffffffffffffff1681565b60008060009054906101000a900473ffffffffffffffffffffffffffffffffffffffff1673ffffffffffffffffffffffffffffffffffffffff163373ffffffffffffffffffffffffffffffffffffffff1614905090565b60115481565b600b5481565b6000809050600062030d409050610f3f82600783611a6e565b507fc4dc360d0a9c0677a3379ae0a3d81e887f761e65fdf3d7e00859d1bcd3c473896040518080602001828103825260368152602001807f50726f7661626c65207175657279207761732073656e742c207374616e64696e81526020017f6720627920666f722074686520616e737765722e2e2e0000000000000000000081525060400191505060405180910390a15050565b600e5481565b610fe0610ec3565b1515611054576040517f08c379a00000000000000000000000000000000000000000000000000000000081526004018080602001828103825260208152602001807f4f776e61626c653a2063616c6c6572206973206e6f7420746865206f776e657281525060200191505060405180910390fd5b600073ffffffffffffffffffffffffffffffffffffffff168173ffffffffffffffffffffffffffffffffffffffff161415151561111f576040517f08c379a00000000000000000000000000000000000000000000000000000000081526004018080602001828103825260258152602001807f4e6577206c6f7474657279206f776e657220697320746865207a65726f20616481526020017f647265737300000000000000000000000000000000000000000000000000000081525060400191505060405180910390fd5b80600d60006101000a81548173ffffffffffffffffffffffffffffffffffffffff021916908373ffffffffffffffffffffffffffffffffffffffff1602179055508073ffffffffffffffffffffffffffffffffffffffff16600d60009054906101000a900473ffffffffffffffffffffffffffffffffffffffff1673ffffffffffffffffffffffffffffffffffffffff167fe8db64ce62bcba2b715a3a7aee31d58a407356b39d15d5b128bb41c598657f8a60405160405180910390a350565b6000600760008373ffffffffffffffffffffffffffffffffffffffff1673ffffffffffffffffffffffffffffffffffffffff168152602001908152602001600020549050919050565b611230610ec3565b15156112a4576040517f08c379a00000000000000000000000000000000000000000000000000000000081526004018080602001828103825260208152602001807f4f776e61626c653a2063616c6c6572206973206e6f7420746865206f776e657281525060200191505060405180910390fd5b6112ad8161203c565b50565b6000600f54600e5401421115156112c657600080fd5b601260009054906101000a900460ff1615156112e157600080fd5b600060065490506008818154811015156112f757fe5b9060005260206000200160009054906101000a900473ffffffffffffffffffffffffffffffffffffffff16600a60006101000a81548173ffffffffffffffffffffffffffffffffffffffff021916908373ffffffffffffffffffffffffffffffffffffffff1602179055506009600a60009054906101000a900473ffffffffffffffffffffffffffffffffffffffff1690806001815401808255809150509060018203906000526020600020016000909192909190916101000a81548173ffffffffffffffffffffffffffffffffffffffff021916908373ffffffffffffffffffffffffffffffffffffffff16021790555050611415600a60009054906101000a900473ffffffffffffffffffffffffffffffffffffffff166121c5565b508091505090565b600f54600e54014211151561143157600080fd5b611439610f26565b6001601260006101000a81548160ff021916908315150217905550565b60008082840190508381101515156114d6576040517f08c379a000000000000000000000000000000000000000000000000000000000815260040180806020018281038252601b8152602001807f536166654d6174683a206164646974696f6e206f766572666c6f77000000000081525060200191505060405180910390fd5b8091505092915050565b60008073ffffffffffffffffffffffffffffffffffffffff16600260009054906101000a900473ffffffffffffffffffffffffffffffffffffffff1673ffffffffffffffffffffffffffffffffffffffff16148061156857506000611566600260009054906101000a900473ffffffffffffffffffffffffffffffffffffffff1661235c565b145b15611579576115776000612367565b505b600260009054906101000a900473ffffffffffffffffffffffffffffffffffffffff1673ffffffffffffffffffffffffffffffffffffffff166338cc48316040518163ffffffff167c0100000000000000000000000000000000000000000000000000000000028152600401602060405180830381600087803b1580156115ff57600080fd5b505af1158015611613573d6000803e3d6000fd5b505050506040513d602081101561162957600080fd5b810190808051906020019092919050505073ffffffffffffffffffffffffffffffffffffffff16600160009054906101000a900473ffffffffffffffffffffffffffffffffffffffff1673ffffffffffffffffffffffffffffffffffffffff1614151561179257600260009054906101000a900473ffffffffffffffffffffffffffffffffffffffff1673ffffffffffffffffffffffffffffffffffffffff166338cc48316040518163ffffffff167c0100000000000000000000000000000000000000000000000000000000028152600401602060405180830381600087803b15801561171657600080fd5b505af115801561172a573d6000803e3d6000fd5b505050506040513d602081101561174057600080fd5b8101908080519060200190929190505050600160006101000a81548173ffffffffffffffffffffffffffffffffffffffff021916908373ffffffffffffffffffffffffffffffffffffffff1602179055505b600160009054906101000a900473ffffffffffffffffffffffffffffffffffffffff1673ffffffffffffffffffffffffffffffffffffffff1663c281d19e6040518163ffffffff167c010000000000000000000000000000000000000000000000000000000002815260040160206040518083038186803b15801561181657600080fd5b505afa15801561182a573d6000803e3d6000fd5b505050506040513d602081101561184057600080fd5b8101908080519060200190929190505050905090565b60007f4c0000000000000000000000000000000000000000000000000000000000000082600081518110151561188857fe5b9060200101517f010000000000000000000000000000000000000000000000000000000000000090047f0100000000000000000000000000000000000000000000000000000000000000027effffffffffffffffffffffffffffffffffffffffffffffffffffffffffffff191614158061199d57507f500000000000000000000000000000000000000000000000000000000000000082600181518110151561192d57fe5b9060200101517f010000000000000000000000000000000000000000000000000000000000000090047f0100000000000000000000000000000000000000000000000000000000000000027effffffffffffffffffffffffffffffffffffffffffffffffffffffffffffff191614155b80611a2b5750600160ff168260028151811015156119b757fe5b9060200101517f010000000000000000000000000000000000000000000000000000000000000090047f0100000000000000000000000000000000000000000000000000000000000000027f0100000000000000000000000000000000000000000000000000000000000000900460ff1614155b15611a395760019050611a67565b6000611a4e838686611a49612378565b61241a565b9050801515611a61576002915050611a67565b60009150505b9392505050565b60008083118015611a80575060208311155b1515611a8b57600080fd5b600a84029350606060016040519080825280601f01601f191660200182016040528015611ac75781602001600182028038833980820191505090505b509050837f010000000000000000000000000000000000000000000000000000000000000002816000815181101515611afc57fe5b9060200101907effffffffffffffffffffffffffffffffffffffffffffffffffffffffffffff1916908160001a905350606060206040519080825280601f01601f191660200182016040528015611b625781602001600182028038833980820191505090505b509050606060206040519080825280601f01601f191660200182016040528015611b9b5781602001600182028038833980820191505090505b5090506000611ba8612bff565b905060208352424118600143034018602084015260208252806020830152606060206040519080825280601f01601f191660200182016040528015611bfc5781602001600182028038833980820191505090505b509050886020820152606060086040519080825280601f01601f191660200182016040528015611c3b5781602001600182028038833980820191505090505b509050611c4e8260186008846000612f75565b50611c57614ed6565b6080604051908101604052808781526020018881526020018681526020018481525090506000611cbd6040805190810160405280600681526020017f72616e646f6d0000000000000000000000000000000000000000000000000000815250838c612fd6565b9050606060086040519080825280601f01601f191660200182016040528015611cf55781602001600182028038833980820191505090505b50905060208401517f0100000000000000000000000000000000000000000000000000000000000000810460278301537e01000000000000000000000000000000000000000000000000000000000000810460268301537d010000000000000000000000000000000000000000000000000000000000810460258301537c0100000000000000000000000000000000000000000000000000000000810460248301537b01000000000000000000000000000000000000000000000000000000810460238301537a0100000000000000000000000000000000000000000000000000008104602283015379010000000000000000000000000000000000000000000000000081046021830153780100000000000000000000000000000000000000000000000081046020830153506120298282856001600481101515611e3657fe5b60200201516002876000600481101515611e4c57fe5b60200201516040518082805190602001908083835b602083101515611e865780518252602082019150602081019050602083039250611e61565b6001836020036101000a038019825116818451168082178552505050505050905001915050602060405180830381855afa158015611ec8573d6000803e3d6000fd5b5050506040513d6020811015611edd57600080fd5b8101908080519060200190929190505050876002600481101515611efd57fe5b60200201516040516020018085805190602001908083835b602083101515611f3a5780518252602082019150602081019050602083039250611f15565b6001836020036101000a03801982511681845116808217855250505050505090500184805190602001908083835b602083101515611f8d5780518252602082019150602081019050602083039250611f68565b6001836020036101000a03801982511681845116808217855250505050505090500183815260200182805190602001908083835b602083101515611fe65780518252602082019150602081019050602083039250611fc1565b6001836020036101000a03801982511681845116808217855250505050505090500194505050505060405160208183030381529060405280519060200120613397565b8199505050505050505050509392505050565b600073ffffffffffffffffffffffffffffffffffffffff168173ffffffffffffffffffffffffffffffffffffffff1614151515612107576040517f08c379a00000000000000000000000000000000000000000000000000000000081526004018080602001828103825260268152602001807f4f776e61626c653a206e6577206f776e657220697320746865207a65726f206181526020017f646472657373000000000000000000000000000000000000000000000000000081525060400191505060405180910390fd5b8073ffffffffffffffffffffffffffffffffffffffff166000809054906101000a900473ffffffffffffffffffffffffffffffffffffffff1673ffffffffffffffffffffffffffffffffffffffff167f8be0079c531659141344cd1fd0a4f28419497f9722a3daafe3b4186f6b6457e060405160405180910390a3806000806101000a81548173ffffffffffffffffffffffffffffffffffffffff021916908373ffffffffffffffffffffffffffffffffffffffff16021790555050565b6000600f54600e5401421015156121db57600080fd5b600061220660646121f86063600c546133b390919063ffffffff16565b61348090919063ffffffff16565b9050600061221f82600c5461351390919063ffffffff16565b9050600d60009054906101000a900473ffffffffffffffffffffffffffffffffffffffff1673ffffffffffffffffffffffffffffffffffffffff166108fc829081150290604051600060405180830381858888f19350505050158015612289573d6000803e3d6000fd5b508373ffffffffffffffffffffffffffffffffffffffff166108fc600c549081150290604051600060405180830381858888f193505050501580156122d2573d6000803e3d6000fd5b507fbcf3be2d085a0c7c417736f3d8ac9677742eaafc8bea4dd1925f3e06220558df84600c54604051808373ffffffffffffffffffffffffffffffffffffffff1673ffffffffffffffffffffffffffffffffffffffff1681526020018281526020019250505060405180910390a16000600c8190555061235061359e565b50600192505050919050565b6000813b9050919050565b6000612371613613565b9050919050565b606060038054600181600116156101000203166002900480601f0160208091040260200160405190810160405280929190818152602001828054600181600116156101000203166002900480156124105780601f106123e557610100808354040283529160200191612410565b820191906000526020600020905b8154815290600101906020018083116123f357829003601f168201915b5050505050905090565b6000806020600287604581518110151561243057fe5b9060200101517f010000000000000000000000000000000000000000000000000000000000000090047f0100000000000000000000000000000000000000000000000000000000000000027f0100000000000000000000000000000000000000000000000000000000000000900460ff1601604401019050606060206040519080825280601f01601f1916602001820160405280156124de5781602001600182028038833980820191505090505b5090506124f087836020846000612f75565b50600284876040516020018083805190602001908083835b60208310151561252d5780518252602082019150602081019050602083039250612508565b6001836020036101000a038019825116818451168082178552505050505050905001828152602001925050506040516020818303038152906040526040518082805190602001908083835b60208310151561259d5780518252602082019150602081019050602083039250612578565b6001836020036101000a038019825116818451168082178552505050505050905001915050602060405180830381855afa1580156125df573d6000803e3d6000fd5b5050506040513d60208110156125f457600080fd5b81019080805190602001909291905050506040516020018082815260200191505060405160208183030381529060405280519060200120818051906020012014151561264557600092505050612bf7565b60606002886001604986010181518110151561265d57fe5b9060200101517f010000000000000000000000000000000000000000000000000000000000000090047f0100000000000000000000000000000000000000000000000000000000000000027f0100000000000000000000000000000000000000000000000000000000000000900460ff16016040519080825280601f01601f1916602001820160405280156127015781602001600182028038833980820191505090505b50905061271688604985018351846000612f75565b506128456002826040518082805190602001908083835b602083101515612752578051825260208201915060208101905060208303925061272d565b6001836020036101000a038019825116818451168082178552505050505050905001915050602060405180830381855afa158015612794573d6000803e3d6000fd5b5050506040513d60208110156127a957600080fd5b8101908080519060200190929190505050878a600860208801018151811015156127cf57fe5b9060200101517f010000000000000000000000000000000000000000000000000000000000000090047f0100000000000000000000000000000000000000000000000000000000000000027f0100000000000000000000000000000000000000000000000000000000000000900460ff16613b6a565b15156128575760009350505050612bf7565b606060296040519080825280601f01601f19166020018201604052801561288d5781602001600182028038833980820191505090505b5090506128a289602086016029846000612f75565b506060604080519080825280601f01601f1916602001820160405280156128d85781602001600182028038833980820191505090505b50905060006041845160296020890101010190506128fe8b604083036040856000612f75565b5060006002836040518082805190602001908083835b6020831015156129395780518252602082019150602081019050602083039250612914565b6001836020036101000a038019825116818451168082178552505050505050905001915050602060405180830381855afa15801561297b573d6000803e3d6000fd5b5050506040513d602081101561299057600080fd5b8101908080519060200190929190505050905083816040516020018083805190602001908083835b6020831015156129dd57805182526020820191506020810190506020830392506129b8565b6001836020036101000a0380198251168184511680821785525050505050509050018281526020019250505060405160208183030381529060405280519060200120600460008d8152602001908152602001600020541415612a5557600460008c815260200190815260200160002060009055612a65565b6000975050505050505050612bf7565b606060496040519080825280601f01601f191660200182016040528015612a9b5781602001600182028038833980820191505090505b509050612aad8d896049846000612f75565b50612b586002826040518082805190602001908083835b602083101515612ae95780518252602082019150602081019050602083039250612ac4565b6001836020036101000a038019825116818451168082178552505050505050905001915050602060405180830381855afa158015612b2b573d6000803e3d6000fd5b5050506040513d6020811015612b4057600080fd5b81019080805190602001909291905050508786613c81565b1515612b6f57600098505050505050505050612bf7565b6005600083815260200190815260200160002060009054906101000a900460ff161515612bcb57612ba08d84613f05565b6005600084815260200190815260200160002060006101000a81548160ff0219169083151502179055505b6005600083815260200190815260200160002060009054906101000a900460ff16985050505050505050505b949350505050565b60008073ffffffffffffffffffffffffffffffffffffffff16600260009054906101000a900473ffffffffffffffffffffffffffffffffffffffff1673ffffffffffffffffffffffffffffffffffffffff161480612c8757506000612c85600260009054906101000a900473ffffffffffffffffffffffffffffffffffffffff1661235c565b145b15612c9857612c966000612367565b505b600260009054906101000a900473ffffffffffffffffffffffffffffffffffffffff1673ffffffffffffffffffffffffffffffffffffffff166338cc48316040518163ffffffff167c0100000000000000000000000000000000000000000000000000000000028152600401602060405180830381600087803b158015612d1e57600080fd5b505af1158015612d32573d6000803e3d6000fd5b505050506040513d6020811015612d4857600080fd5b810190808051906020019092919050505073ffffffffffffffffffffffffffffffffffffffff16600160009054906101000a900473ffffffffffffffffffffffffffffffffffffffff1673ffffffffffffffffffffffffffffffffffffffff16141515612eb157600260009054906101000a900473ffffffffffffffffffffffffffffffffffffffff1673ffffffffffffffffffffffffffffffffffffffff166338cc48316040518163ffffffff167c0100000000000000000000000000000000000000000000000000000000028152600401602060405180830381600087803b158015612e3557600080fd5b505af1158015612e49573d6000803e3d6000fd5b505050506040513d6020811015612e5f57600080fd5b8101908080519060200190929190505050600160006101000a81548173ffffffffffffffffffffffffffffffffffffffff021916908373ffffffffffffffffffffffffffffffffffffffff1602179055505b600160009054906101000a900473ffffffffffffffffffffffffffffffffffffffff1673ffffffffffffffffffffffffffffffffffffffff1663abaa5f3e6040518163ffffffff167c010000000000000000000000000000000000000000000000000000000002815260040160206040518083038186803b158015612f3557600080fd5b505afa158015612f49573d6000803e3d6000fd5b505050506040513d6020811015612f5f57600080fd5b8101908080519060200190929190505050905090565b60606000828501905080845110151515612f8e57600080fd5b600086602001905060008460200190505b868860200101821015612fc75781890151808288015250602082019150602081019050612f9f565b85935050505095945050505050565b60008073ffffffffffffffffffffffffffffffffffffffff16600260009054906101000a900473ffffffffffffffffffffffffffffffffffffffff1673ffffffffffffffffffffffffffffffffffffffff16148061305e5750600061305c600260009054906101000a900473ffffffffffffffffffffffffffffffffffffffff1661235c565b145b1561306f5761306d6000612367565b505b600260009054906101000a900473ffffffffffffffffffffffffffffffffffffffff1673ffffffffffffffffffffffffffffffffffffffff166338cc48316040518163ffffffff167c0100000000000000000000000000000000000000000000000000000000028152600401602060405180830381600087803b1580156130f557600080fd5b505af1158015613109573d6000803e3d6000fd5b505050506040513d602081101561311f57600080fd5b810190808051906020019092919050505073ffffffffffffffffffffffffffffffffffffffff16600160009054906101000a900473ffffffffffffffffffffffffffffffffffffffff1673ffffffffffffffffffffffffffffffffffffffff1614151561328857600260009054906101000a900473ffffffffffffffffffffffffffffffffffffffff1673ffffffffffffffffffffffffffffffffffffffff166338cc48316040518163ffffffff167c0100000000000000000000000000000000000000000000000000000000028152600401602060405180830381600087803b15801561320c57600080fd5b505af1158015613220573d6000803e3d6000fd5b505050506040513d602081101561323657600080fd5b8101908080519060200190929190505050600160006101000a81548173ffffffffffffffffffffffffffffffffffffffff021916908373ffffffffffffffffffffffffffffffffffffffff1602179055505b606060046040519080825280602002602001820160405280156132bf57816020015b60608152602001906001900390816132aa5790505b5090508360006004811015156132d157fe5b60200201518160008151811015156132e557fe5b9060200190602002018190525083600160048110151561330157fe5b602002015181600181518110151561331557fe5b9060200190602002018190525083600260048110151561333157fe5b602002015181600281518110151561334557fe5b9060200190602002018190525083600360048110151561336157fe5b602002015181600381518110151561337557fe5b9060200190602002018190525061338d85828561446e565b9150509392505050565b8060046000848152602001908152602001600020819055505050565b6000808314156133c6576000905061347a565b600082840290508284828115156133d957fe5b04141515613475576040517f08c379a00000000000000000000000000000000000000000000000000000000081526004018080602001828103825260218152602001807f536166654d6174683a206d756c7469706c69636174696f6e206f766572666c6f81526020017f770000000000000000000000000000000000000000000000000000000000000081525060400191505060405180910390fd5b809150505b92915050565b600080821115156134f9576040517f08c379a000000000000000000000000000000000000000000000000000000000815260040180806020018281038252601a8152602001807f536166654d6174683a206469766973696f6e206279207a65726f00000000000081525060200191505060405180910390fd5b6000828481151561350657fe5b0490508091505092915050565b600082821115151561358d576040517f08c379a000000000000000000000000000000000000000000000000000000000815260040180806020018281038252601e8152602001807f536166654d6174683a207375627472616374696f6e206f766572666c6f77000081525060200191505060405180910390fd5b600082840390508091505092915050565b6000600f54600e5401421115156135b457600080fd5b6000601060006101000a81548160ff02191690831515021790555042600e8190555062015180600f819055507f893ef2883e1d002809b0ecad6cae93cb02eb514120b5f0b472f986d0d5f216a360405160405180910390a16001905090565b600080613633731d3b2638a7cc9f2cb3d298a3da7a90b67e5506ed61235c565b11156136d557731d3b2638a7cc9f2cb3d298a3da7a90b67e5506ed600260006101000a81548173ffffffffffffffffffffffffffffffffffffffff021916908373ffffffffffffffffffffffffffffffffffffffff1602179055506136cc6040805190810160405280600b81526020017f6574685f6d61696e6e6574000000000000000000000000000000000000000000815250614a47565b60019050613b67565b60006136f473c03a2615d5efaf5f49f60b7bb6583eaec212fdf161235c565b11156137965773c03a2615d5efaf5f49f60b7bb6583eaec212fdf1600260006101000a81548173ffffffffffffffffffffffffffffffffffffffff021916908373ffffffffffffffffffffffffffffffffffffffff16021790555061378d6040805190810160405280600c81526020017f6574685f726f707374656e330000000000000000000000000000000000000000815250614a47565b60019050613b67565b60006137b573b7a07bcf2ba2f2703b24c0691b5278999c59ac7e61235c565b11156138575773b7a07bcf2ba2f2703b24c0691b5278999c59ac7e600260006101000a81548173ffffffffffffffffffffffffffffffffffffffff021916908373ffffffffffffffffffffffffffffffffffffffff16021790555061384e6040805190810160405280600981526020017f6574685f6b6f76616e0000000000000000000000000000000000000000000000815250614a47565b60019050613b67565b600061387673146500cfd35b22e4a392fe0adc06de1a1368ed4861235c565b11156139185773146500cfd35b22e4a392fe0adc06de1a1368ed48600260006101000a81548173ffffffffffffffffffffffffffffffffffffffff021916908373ffffffffffffffffffffffffffffffffffffffff16021790555061390f6040805190810160405280600b81526020017f6574685f72696e6b656279000000000000000000000000000000000000000000815250614a47565b60019050613b67565b600061393773a2998efd205fb9d4b4963afb70778d6354ad3a4161235c565b11156139d95773a2998efd205fb9d4b4963afb70778d6354ad3a41600260006101000a81548173ffffffffffffffffffffffffffffffffffffffff021916908373ffffffffffffffffffffffffffffffffffffffff1602179055506139d06040805190810160405280600a81526020017f6574685f676f65726c6900000000000000000000000000000000000000000000815250614a47565b60019050613b67565b60006139f8736f485c8bf6fc43ea212e93bbf8ce046c7f1cb47561235c565b1115613a5c57736f485c8bf6fc43ea212e93bbf8ce046c7f1cb475600260006101000a81548173ffffffffffffffffffffffffffffffffffffffff021916908373ffffffffffffffffffffffffffffffffffffffff16021790555060019050613b67565b6000613a7b7320e12a1f859b3feae5fb2a0a32c18f5a65555bbf61235c565b1115613adf577320e12a1f859b3feae5fb2a0a32c18f5a65555bbf600260006101000a81548173ffffffffffffffffffffffffffffffffffffffff021916908373ffffffffffffffffffffffffffffffffffffffff16021790555060019050613b67565b6000613afe7351efaf4c8b3c9afbd5ab9f4bbc82784ab6ef8faa61235c565b1115613b62577351efaf4c8b3c9afbd5ab9f4bbc82784ab6ef8faa600260006101000a81548173ffffffffffffffffffffffffffffffffffffffff021916908373ffffffffffffffffffffffffffffffffffffffff16021790555060019050613b67565b600090505b90565b60008060019050828451141515613b8057600080fd5b60008090505b83811015613c75578481815181101515613b9c57fe5b9060200101517f010000000000000000000000000000000000000000000000000000000000000090047f0100000000000000000000000000000000000000000000000000000000000000027effffffffffffffffffffffffffffffffffffffffffffffffffffffffffffff19168682602081101515613c1757fe5b1a7f0100000000000000000000000000000000000000000000000000000000000000027effffffffffffffffffffffffffffffffffffffffffffffffffffffffffffff1916141515613c6857600091505b8080600101915050613b86565b50809150509392505050565b6000806000806000606060206040519080825280601f01601f191660200182016040528015613cbf5781602001600182028038833980820191505090505b50905060006020896003815181101515613cd557fe5b9060200101517f010000000000000000000000000000000000000000000000000000000000000090047f0100000000000000000000000000000000000000000000000000000000000000027f0100000000000000000000000000000000000000000000000000000000000000900460ff16036004019050613d5b89826020856000612f75565b9150606060206040519080825280601f01601f191660200182016040528015613d935781602001600182028038833980820191505090505b509050602282019150613e318a60208c60018603815181101515613db357fe5b9060200101517f010000000000000000000000000000000000000000000000000000000000000090047f0100000000000000000000000000000000000000000000000000000000000000027f0100000000000000000000000000000000000000000000000000000000000000900460ff160384016020846000612f75565b90506020830151945060208101519350613e4e8b601b8787614a61565b80975081985050508573ffffffffffffffffffffffffffffffffffffffff1689805190602001206001900473ffffffffffffffffffffffffffffffffffffffff161415613ea5576001975050505050505050613efe565b613eb28b601c8787614a61565b80975081985050508573ffffffffffffffffffffffffffffffffffffffff1689805190602001206001900473ffffffffffffffffffffffffffffffffffffffff16149750505050505050505b9392505050565b600080606060028560018601815181101515613f1d57fe5b9060200101517f010000000000000000000000000000000000000000000000000000000000000090047f0100000000000000000000000000000000000000000000000000000000000000027f0100000000000000000000000000000000000000000000000000000000000000900460ff16016040519080825280601f01601f191660200182016040528015613fc15781602001600182028038833980820191505090505b509050613fd385858351846000612f75565b506060604080519080825280601f01601f1916602001820160405280156140095781602001600182028038833980820191505090505b50905061401c8660046040846000612f75565b50606060626040519080825280601f01601f1916602001820160405280156140535781602001600182028038833980820191505090505b50905060017f01000000000000000000000000000000000000000000000000000000000000000281600081518110151561408957fe5b9060200101907effffffffffffffffffffffffffffffffffffffffffffffffffffffffffffff1916908160001a9053506140cb87604188036041846001612f75565b5060606040805190810160405280602081526020017ffd94fa71bc0ba10d39d464d0d8f465efeef0a2764e3887fcc9df41ded20f505c81525090506141168160006020856042612f75565b506141c16002836040518082805190602001908083835b602083101515614152578051825260208201915060208101905060208303925061412d565b6001836020036101000a038019825116818451168082178552505050505050905001915050602060405180830381855afa158015614194573d6000803e3d6000fd5b5050506040513d60208110156141a957600080fd5b81019080805190602001909291905050508585613c81565b94508415156141d857600095505050505050614468565b60608060405190810160405280604081526020017f7fb956469c5c9b89840d55b43537e66a98dd4811ea0a27224272c2e5622911e881526020017f537a2f8e86a46baec82864e98dd01e9ccc2f8bc5dfc9cbe5a91a290498dd96e48152509050606060426040519080825280601f01601f19166020018201604052801561426e5781602001600182028038833980820191505090505b50905060fe7f0100000000000000000000000000000000000000000000000000000000000000028160008151811015156142a457fe5b9060200101907effffffffffffffffffffffffffffffffffffffffffffffffffffffffffffff1916908160001a9053506142e48a60036041846001612f75565b50606060028b60458151811015156142f857fe5b9060200101517f010000000000000000000000000000000000000000000000000000000000000090047f0100000000000000000000000000000000000000000000000000000000000000027f0100000000000000000000000000000000000000000000000000000000000000900460ff16016040519080825280601f01601f19166020018201604052801561439c5781602001600182028038833980820191505090505b5090506143af8b60448351846000612f75565b5061445a6002836040518082805190602001908083835b6020831015156143eb57805182526020820191506020810190506020830392506143c6565b6001836020036101000a038019825116818451168082178552505050505050905001915050602060405180830381855afa15801561442d573d6000803e3d6000fd5b5050506040513d602081101561444257600080fd5b81019080805190602001909291905050508285613c81565b975087985050505050505050505b92915050565b60008073ffffffffffffffffffffffffffffffffffffffff16600260009054906101000a900473ffffffffffffffffffffffffffffffffffffffff1673ffffffffffffffffffffffffffffffffffffffff1614806144f6575060006144f4600260009054906101000a900473ffffffffffffffffffffffffffffffffffffffff1661235c565b145b15614507576145056000612367565b505b600260009054906101000a900473ffffffffffffffffffffffffffffffffffffffff1673ffffffffffffffffffffffffffffffffffffffff166338cc48316040518163ffffffff167c0100000000000000000000000000000000000000000000000000000000028152600401602060405180830381600087803b15801561458d57600080fd5b505af11580156145a1573d6000803e3d6000fd5b505050506040513d60208110156145b757600080fd5b810190808051906020019092919050505073ffffffffffffffffffffffffffffffffffffffff16600160009054906101000a900473ffffffffffffffffffffffffffffffffffffffff1673ffffffffffffffffffffffffffffffffffffffff1614151561472057600260009054906101000a900473ffffffffffffffffffffffffffffffffffffffff1673ffffffffffffffffffffffffffffffffffffffff166338cc48316040518163ffffffff167c0100000000000000000000000000000000000000000000000000000000028152600401602060405180830381600087803b1580156146a457600080fd5b505af11580156146b8573d6000803e3d6000fd5b505050506040513d60208110156146ce57600080fd5b8101908080519060200190929190505050600160006101000a81548173ffffffffffffffffffffffffffffffffffffffff021916908373ffffffffffffffffffffffffffffffffffffffff1602179055505b6000600160009054906101000a900473ffffffffffffffffffffffffffffffffffffffff1673ffffffffffffffffffffffffffffffffffffffff16632ef3accc86856040518363ffffffff167c01000000000000000000000000000000000000000000000000000000000281526004018080602001838152602001828103825284818151815260200191508051906020019080838360005b838110156147d35780820151818401526020810190506147b8565b50505050905090810190601f1680156148005780820380516001836020036101000a031916815260200191505b509350505050602060405180830381600087803b15801561482057600080fd5b505af1158015614834573d6000803e3d6000fd5b505050506040513d602081101561484a57600080fd5b81019080805190602001909291905050509050823a02670de0b6b3a76400000181111561487e576000600102915050614a40565b606061488985614aa5565b9050600160009054906101000a900473ffffffffffffffffffffffffffffffffffffffff1673ffffffffffffffffffffffffffffffffffffffff1663c55c1cb68360008985896040518663ffffffff167c0100000000000000000000000000000000000000000000000000000000028152600401808581526020018060200180602001848152602001838103835286818151815260200191508051906020019080838360005b8381101561494a57808201518184015260208101905061492f565b50505050905090810190601f1680156149775780820380516001836020036101000a031916815260200191505b50838103825285818151815260200191508051906020019080838360005b838110156149b0578082015181840152602081019050614995565b50505050905090810190601f1680156149dd5780820380516001836020036101000a031916815260200191505b5096505050505050506020604051808303818588803b1580156149ff57600080fd5b505af1158015614a13573d6000803e3d6000fd5b50505050506040513d6020811015614a2a57600080fd5b8101908080519060200190929190505050925050505b9392505050565b8060039080519060200190614a5d929190614efe565b5050565b60008060008060405188815287602082015286604082015285606082015260208160808360006001610bb8f192508051915050818193509350505094509492505050565b6060614aaf614b29565b614ab7614f7e565b614ac381610400614b35565b614acc81614b85565b60008090505b8351811015614b1257614b058482815181101515614aec57fe5b9060200190602002015183614b9390919063ffffffff16565b8080600101915050614ad2565b50614b1c81614bb8565b8060000151915050919050565b60405180590338823950565b60008190506000602082811515614b4857fe5b06141515614b6557602081811515614b5c57fe5b06602003810190505b808360200181815250506040518084526000815281810160405250505050565b614b90816004614bc6565b50565b614ba08260028351614bea565b614bb38183614d4390919063ffffffff16565b505050565b614bc3816007614bc6565b50565b614be6601f60058360ff169060020a021783614df090919063ffffffff16565b5050565b601781111515614c1b57614c168160058460ff169060020a0260ff161784614df090919063ffffffff16565b614d3e565b60ff81111515614c6157614c45601860058460ff169060020a021784614df090919063ffffffff16565b614c5b81600185614e309092919063ffffffff16565b50614d3d565b61ffff81111515614ca857614c8c601960058460ff169060020a021784614df090919063ffffffff16565b614ca281600285614e309092919063ffffffff16565b50614d3c565b63ffffffff81111515614cf157614cd5601a60058460ff169060020a021784614df090919063ffffffff16565b614ceb81600485614e309092919063ffffffff16565b50614d3b565b67ffffffffffffffff81111515614d3a57614d22601b60058460ff169060020a021784614df090919063ffffffff16565b614d3881600885614e309092919063ffffffff16565b505b5b5b5b5b505050565b614d4b614f7e565b82602001518360000151518351011115614d7b57614d7a836002614d7486602001518651614e97565b02614eb3565b5b60008060008451905085518051602081830101945086518101825260208701935050505b602081101515614dc45781518352602083019250602082019150602081039050614d9f565b60006001826020036101000a039050801983511681855116818117865250508694505050505092915050565b81602001516001836000015151011115614e1657614e15826002846020015102614eb3565b5b815180516020818301018381536001820183525050505050565b614e38614f7e565b836020015184600001515183011115614e6657614e65846002614e5f876020015186614e97565b02614eb3565b5b60006001836101000a0390508451805184818301018684198251161781528582018352505050849150509392505050565b600081831115614ea957829050614ead565b8190505b92915050565b606082600001519050614ec68383614b35565b614ed08382614d43565b50505050565b6080604051908101604052806004905b6060815260200190600190039081614ee65790505090565b828054600181600116156101000203166002900490600052602060002090601f016020900481019282601f10614f3f57805160ff1916838001178555614f6d565b82800160010185558215614f6d579182015b82811115614f6c578251825591602001919060010190614f51565b5b509050614f7a9190614f98565b5090565b604080519081016040528060608152602001600081525090565b614fba91905b80821115614fb6576000816000905550600101614f9e565b5090565b9056fea165627a7a723058204327976857e042fdc88a286be6b6224dd94c7676ba26d1ad7bb9f1fb1f646a700029",
  "source": "pragma solidity >= 0.5.0 < 0.6.0;\n\nimport \"./Random.sol\";\n\nlibrary SafeMath {\n    \n    function add(uint256 a, uint256 b) internal pure returns (uint256) {\n        uint256 c = a + b;\n        require(c >= a, \"SafeMath: addition overflow\");\n\n        return c;\n    }\n\n    \n    function sub(uint256 a, uint256 b) internal pure returns (uint256) {\n        require(b <= a, \"SafeMath: subtraction overflow\");\n        uint256 c = a - b;\n\n        return c;\n    }\n\n    \n    function mul(uint256 a, uint256 b) internal pure returns (uint256) {\n        // Gas optimization: this is cheaper than requiring 'a' not being zero, but the\n        // benefit is lost if 'b' is also tested.\n        // See: https://github.com/OpenZeppelin/openzeppelin-solidity/pull/522\n        if (a == 0) {\n            return 0;\n        }\n\n        uint256 c = a * b;\n        require(c / a == b, \"SafeMath: multiplication overflow\");\n\n        return c;\n    }\n\n    \n    function div(uint256 a, uint256 b) internal pure returns (uint256) {\n        // Solidity only automatically asserts when dividing by 0\n        require(b > 0, \"SafeMath: division by zero\");\n        uint256 c = a / b;\n        // assert(a == b * c + a % b); // There is no case in which this doesn't hold\n\n        return c;\n    }\n\n    \n    function mod(uint256 a, uint256 b) internal pure returns (uint256) {\n        require(b != 0, \"SafeMath: modulo by zero\");\n        return a % b;\n    }\n}\n\n\ncontract Ownable {\n    address private _owner;\n\n    event OwnershipTransferred(address indexed previousOwner, address indexed newOwner);\n\n    /**\n     * @dev Initializes the contract setting the deployer as the initial owner.\n     */\n    constructor () internal {\n        _owner = msg.sender;\n        emit OwnershipTransferred(address(0), _owner);\n    }\n\n    /**\n     * @dev Returns the address of the current owner.\n     */\n    function owner() public view returns (address) {\n        return _owner;\n    }\n\n    /**\n     * @dev Throws if called by any account other than the owner.\n     */\n    modifier onlyOwner() {\n        require(isOwner(), \"Ownable: caller is not the owner\");\n        _;\n    }\n\n    /**\n     * @dev Returns true if the caller is the current owner.\n     */\n    function isOwner() public view returns (bool) {\n        return msg.sender == _owner;\n    }\n\n    /**\n     * @dev Leaves the contract without owner. It will not be possible to call\n     * `onlyOwner` functions anymore. Can only be called by the current owner.\n     *\n     * > Note: Renouncing ownership will leave the contract without an owner,\n     * thereby removing any functionality that is only available to the owner.\n     */\n    function renounceOwnership() public onlyOwner {\n        emit OwnershipTransferred(_owner, address(0));\n        _owner = address(0);\n    }\n\n    /**\n     * @dev Transfers ownership of the contract to a new account (`newOwner`).\n     * Can only be called by the current owner.\n     */\n    function transferOwnership(address newOwner) public onlyOwner {\n        _transferOwnership(newOwner);\n    }\n\n    /**\n     * @dev Transfers ownership of the contract to a new account (`newOwner`).\n     */\n    function _transferOwnership(address newOwner) internal {\n        require(newOwner != address(0), \"Ownable: new owner is the zero address\");\n        emit OwnershipTransferred(_owner, newOwner);\n        _owner = newOwner;\n    }\n}\n\ncontract CourseLottery is Ownable, Random {\n    \n    using SafeMath for uint256;\n    \n    struct TicketHolder {\n        address _holderAddress;\n        uint _numTickets;\n    }\n\n    //----------Variables------------\n    // Mapping of tickets issued to each address\n    mapping (address => uint) public ticketHolders;\n    address payable []  public holders;\n\n    // Array of previous winners.\n    // TODO: Only hold last 10 winners\n    address[] public prevWinners;\n\n    // Winner of the current lottery\n    address payable winner;\n\n    // Total number of tickets issued\n    uint public ticketsIssued;\n\n    // Total balance of the smart contract\n    uint public contractBalance;\n\n    // address of lotery owner\n    address payable public addressLotteryOwner = 0x65D069D418E7d56bFc2C1d6D78c5dAd8A32D1882;\n\n    // When the lottery started\n    uint public lotteryStart;\n\n    // Duration the lottery will be active for\n    uint public lotteryDuration;\n\n    // Flag that the lottery is now over\n    bool public lotteryEnded;\n\n    // Total Eth that has been won from users using the contract\n    uint public totalEthWon;\n    \n    // Flag geted random number\n    bool public rand;\n\n    //----------Events---------------\n    // Event for when tickets are bought\n    event TicketsBought(address indexed _from, uint _quantity);\n\n    // Event for declaring the winner\n    event AwardWinnings(address _to, uint _winnings);\n\n    // Event for lottery reset\n    event ResetLottery();\n    \n    event ChangeAddressOfLotteryOwner (address indexed previousLotteryOwner, address indexed newLotteryOwner);\n\n    //---------Modifiers---------------\n\n    // Checks if still in lottery contribution period\n    modifier lotteryOngoing() {\n        require(now < lotteryStart + lotteryDuration);\n        _;\n    }\n\n    // Checks if lottery has finished\n    modifier lotteryFinished() {\n        require(now > lotteryStart + lotteryDuration);\n        _;\n    }\n\n    //---------Functions----------------\n    \n    //Create the lottery, each one lasts for 24 hours\n    constructor () public {\n        ticketsIssued = 0;\n        lotteryStart = now;\n        lotteryDuration = 24 hours;\n    }\n\n    // Fallback function calls buyTickets\n    function () payable external {\n        buyTickets();\n    }\n    // Award users tickets for eth, 1 finney = 1 ticket\n    function buyTickets() payable public lotteryOngoing returns (bool success) {\n        rand = false;\n        ticketHolders[msg.sender] = msg.value / (10**15);\n        ticketsIssued = ticketsIssued.add(ticketHolders[msg.sender]);\n        holders.push(msg.sender);\n        contractBalance = contractBalance.add(msg.value);\n        emit TicketsBought(msg.sender, ticketHolders[msg.sender]);\n        return true;\n    }\n\n    // After winners have been declared and awarded, clear the arrays and reset the balances\n    function resetLottery() internal lotteryFinished returns (bool success) {\n        lotteryEnded = false;\n        lotteryStart = now;\n        lotteryDuration = 24 hours;\n        emit ResetLottery();\n        return true;\n    }\n\n\n    // change the lottery owner account\n    function NewAccountOfLotteryOwner(address payable _addressLotteryOwner) public onlyOwner {\n        require (_addressLotteryOwner != address(0), \"New lottery owner is the zero address\");      \n        addressLotteryOwner = _addressLotteryOwner;\n        emit ChangeAddressOfLotteryOwner(addressLotteryOwner, _addressLotteryOwner);\n        \n    }  \n   \n    \n     // This will distribute the correct winnings to each winner\n    function awardWinnings(address payable _winner) internal lotteryOngoing returns (bool success) {\n        uint256 winner_part_value = contractBalance.mul(99).div(100);\n        uint256 amount = contractBalance.sub(winner_part_value);\n        \n        addressLotteryOwner.transfer(amount); \n        _winner.transfer(contractBalance);\n        \n        emit AwardWinnings(_winner, contractBalance);\n        contractBalance = 0;\n        resetLottery();\n        return true;\n    }\n    \n   \n    \n    // Get random from oraclize\n    function GetRandomNumber() public lotteryFinished {\n     update();\n     rand = true;\n     \n    }\n    \n    \n\n    //Generate the winners by random using tickets bought as weight\n    function generateWinners() public lotteryFinished returns (uint winningTicket) {\n\n        //Need to make this truly random - This is temp solution for testing\n        //uint randNum = uint(blockhash(block.number - 1)) % ticketsIssued + 1;\n        \n        require (rand);\n        uint256 randNum = random;\n        winner = holders[randNum];\n        prevWinners.push(winner);\n        awardWinnings(winner);\n        return randNum;\n    }\n\n    function getTicketBalance(address _account) public view returns (uint balance) {\n        return ticketHolders[_account];\n    }\n\n    function getBalance() public view returns (uint) {\n        return address(this).balance;\n    }\n}",
  "sourcePath": "/home/home/lottery/contracts/lottery.sol",
  "compiler": {
    "name": "solc",
    "version": "0.5.0+commit.1d4f565a.Emscripten.clang"
  },
  "schemaVersion": "3.0.19",
  "updatedAt": "2019-11-28T14:28:19.690Z",
  "devdoc": {
    "methods": {
      "__callback(bytes32,string)": {
        "details": "The following `__callback` functions are just placeholders ideally     meant to be defined in child contract when proofs are used.     The function bodies simply silence compiler warnings."
      },
      "isOwner()": {
        "details": "Returns true if the caller is the current owner."
      },
      "owner()": {
        "details": "Returns the address of the current owner."
      },
      "renounceOwnership()": {
        "details": "Leaves the contract without owner. It will not be possible to call `onlyOwner` functions anymore. Can only be called by the current owner.     * > Note: Renouncing ownership will leave the contract without an owner, thereby removing any functionality that is only available to the owner."
      },
      "transferOwnership(address)": {
        "details": "Transfers ownership of the contract to a new account (`newOwner`). Can only be called by the current owner."
      }
    }
  },
  "userdoc": {
    "methods": {}
  }
}