{
  "contractName": "Random",
  "abi": [
    {
      "constant": true,
      "inputs": [],
      "name": "random",
      "outputs": [
        {
          "name": "",
          "type": "uint256"
        }
      ],
      "payable": false,
      "stateMutability": "view",
      "type": "function"
    },
    {
      "inputs": [],
      "payable": false,
      "stateMutability": "nonpayable",
      "type": "constructor"
    },
    {
      "anonymous": false,
      "inputs": [
        {
          "indexed": false,
          "name": "description",
          "type": "string"
        }
      ],
      "name": "LogNewProvableQuery",
      "type": "event"
    },
    {
      "anonymous": false,
      "inputs": [
        {
          "indexed": false,
          "name": "randomNumber",
          "type": "uint256"
        }
      ],
      "name": "generatedRandomNumber",
      "type": "event"
    },
    {
      "constant": false,
      "inputs": [
        {
          "name": "_myid",
          "type": "bytes32"
        },
        {
          "name": "_result",
          "type": "string"
        }
      ],
      "name": "__callback",
      "outputs": [],
      "payable": false,
      "stateMutability": "nonpayable",
      "type": "function"
    },
    {
      "constant": false,
      "inputs": [
        {
          "name": "_queryId",
          "type": "bytes32"
        },
        {
          "name": "_result",
          "type": "string"
        },
        {
          "name": "_proof",
          "type": "bytes"
        }
      ],
      "name": "__callback",
      "outputs": [],
      "payable": false,
      "stateMutability": "nonpayable",
      "type": "function"
    },
    {
      "constant": false,
      "inputs": [],
      "name": "update",
      "outputs": [],
      "payable": true,
      "stateMutability": "payable",
      "type": "function"
    }
  ],
  "bytecode": "0x60806040523480156200001157600080fd5b506200004f60307f0100000000000000000000000000000000000000000000000000000000000000026200006e640100000000026401000000009004565b6200006862000439640100000000026401000000009004565b620026f1565b600073ffffffffffffffffffffffffffffffffffffffff16600160009054906101000a900473ffffffffffffffffffffffffffffffffffffffff1673ffffffffffffffffffffffffffffffffffffffff161480620001075750600062000105600160009054906101000a900473ffffffffffffffffffffffffffffffffffffffff16620004f6640100000000026401000000009004565b145b156200012a5762000128600062000501640100000000026401000000009004565b505b600160009054906101000a900473ffffffffffffffffffffffffffffffffffffffff1673ffffffffffffffffffffffffffffffffffffffff166338cc48316040518163ffffffff167c0100000000000000000000000000000000000000000000000000000000028152600401602060405180830381600087803b158015620001b157600080fd5b505af1158015620001c6573d6000803e3d6000fd5b505050506040513d6020811015620001dd57600080fd5b810190808051906020019092919050505073ffffffffffffffffffffffffffffffffffffffff166000809054906101000a900473ffffffffffffffffffffffffffffffffffffffff1673ffffffffffffffffffffffffffffffffffffffff161415156200034857600160009054906101000a900473ffffffffffffffffffffffffffffffffffffffff1673ffffffffffffffffffffffffffffffffffffffff166338cc48316040518163ffffffff167c0100000000000000000000000000000000000000000000000000000000028152600401602060405180830381600087803b158015620002cb57600080fd5b505af1158015620002e0573d6000803e3d6000fd5b505050506040513d6020811015620002f757600080fd5b81019080805190602001909291905050506000806101000a81548173ffffffffffffffffffffffffffffffffffffffff021916908373ffffffffffffffffffffffffffffffffffffffff1602179055505b6000809054906101000a900473ffffffffffffffffffffffffffffffffffffffff1673ffffffffffffffffffffffffffffffffffffffff1663688dcfd7826040518263ffffffff167c010000000000000000000000000000000000000000000000000000000002815260040180827effffffffffffffffffffffffffffffffffffffffffffffffffffffffffffff19167effffffffffffffffffffffffffffffffffffffffffffffffffffffffffffff19168152602001915050600060405180830381600087803b1580156200041d57600080fd5b505af115801562000432573d6000803e3d6000fd5b5050505050565b6000809050600062030d409050620004638260078362000523640100000000026401000000009004565b507fc4dc360d0a9c0677a3379ae0a3d81e887f761e65fdf3d7e00859d1bcd3c473896040518080602001828103825260368152602001807f50726f7661626c65207175657279207761732073656e742c207374616e64696e81526020017f6720627920666f722074686520616e737765722e2e2e0000000000000000000081525060400191505060405180910390a15050565b6000813b9050919050565b60006200051c62000b4d640100000000026401000000009004565b9050919050565b6000808311801562000536575060208311155b15156200054257600080fd5b600a84029350606060016040519080825280601f01601f1916602001820160405280156200057f5781602001600182028038833980820191505090505b509050837f010000000000000000000000000000000000000000000000000000000000000002816000815181101515620005b557fe5b9060200101907effffffffffffffffffffffffffffffffffffffffffffffffffffffffffffff1916908160001a905350606060206040519080825280601f01601f1916602001820160405280156200061c5781602001600182028038833980820191505090505b509050606060206040519080825280601f01601f191660200182016040528015620006565781602001600182028038833980820191505090505b50905060006200067462001191640100000000026401000000009004565b905060208352424118600143034018602084015260208252806020830152606060206040519080825280601f01601f191660200182016040528015620006c95781602001600182028038833980820191505090505b509050886020820152606060086040519080825280601f01601f191660200182016040528015620007095781602001600182028038833980820191505090505b5090506200072d826018600884600062001532640100000000026401000000009004565b5062000738620025ff565b6080604051908101604052808781526020018881526020018681526020018481525090506000620007af6040805190810160405280600681526020017f72616e646f6d0000000000000000000000000000000000000000000000000000815250838c62001596640100000000026401000000009004565b9050606060086040519080825280601f01601f191660200182016040528015620007e85781602001600182028038833980820191505090505b50905060208401517f0100000000000000000000000000000000000000000000000000000000000000810460278301537e01000000000000000000000000000000000000000000000000000000000000810460268301537d010000000000000000000000000000000000000000000000000000000000810460258301537c0100000000000000000000000000000000000000000000000000000000810460248301537b01000000000000000000000000000000000000000000000000000000810460238301537a01000000000000000000000000000000000000000000000000000081046022830153790100000000000000000000000000000000000000000000000000810460218301537801000000000000000000000000000000000000000000000000810460208301535062000b3a82828560016004811015156200092b57fe5b602002015160028760006004811015156200094257fe5b60200201516040518082805190602001908083835b6020831015156200097e578051825260208201915060208101905060208303925062000957565b6001836020036101000a038019825116818451168082178552505050505050905001915050602060405180830381855afa158015620009c1573d6000803e3d6000fd5b5050506040513d6020811015620009d757600080fd5b8101908080519060200190929190505050876002600481101515620009f857fe5b60200201516040516020018085805190602001908083835b60208310151562000a37578051825260208201915060208101905060208303925062000a10565b6001836020036101000a03801982511681845116808217855250505050505090500184805190602001908083835b60208310151562000a8c578051825260208201915060208101905060208303925062000a65565b6001836020036101000a03801982511681845116808217855250505050505090500183815260200182805190602001908083835b60208310151562000ae7578051825260208201915060208101905060208303925062000ac0565b6001836020036101000a038019825116818451168082178552505050505050905001945050505050604051602081830303815290604052805190602001206200199b640100000000026401000000009004565b8199505050505050505050509392505050565b60008062000b7e731d3b2638a7cc9f2cb3d298a3da7a90b67e5506ed620004f6640100000000026401000000009004565b111562000c3357731d3b2638a7cc9f2cb3d298a3da7a90b67e5506ed600160006101000a81548173ffffffffffffffffffffffffffffffffffffffff021916908373ffffffffffffffffffffffffffffffffffffffff16021790555062000c296040805190810160405280600b81526020017f6574685f6d61696e6e6574000000000000000000000000000000000000000000815250620019b7640100000000026401000000009004565b600190506200118e565b600062000c6373c03a2615d5efaf5f49f60b7bb6583eaec212fdf1620004f6640100000000026401000000009004565b111562000d185773c03a2615d5efaf5f49f60b7bb6583eaec212fdf1600160006101000a81548173ffffffffffffffffffffffffffffffffffffffff021916908373ffffffffffffffffffffffffffffffffffffffff16021790555062000d0e6040805190810160405280600c81526020017f6574685f726f707374656e330000000000000000000000000000000000000000815250620019b7640100000000026401000000009004565b600190506200118e565b600062000d4873b7a07bcf2ba2f2703b24c0691b5278999c59ac7e620004f6640100000000026401000000009004565b111562000dfd5773b7a07bcf2ba2f2703b24c0691b5278999c59ac7e600160006101000a81548173ffffffffffffffffffffffffffffffffffffffff021916908373ffffffffffffffffffffffffffffffffffffffff16021790555062000df36040805190810160405280600981526020017f6574685f6b6f76616e0000000000000000000000000000000000000000000000815250620019b7640100000000026401000000009004565b600190506200118e565b600062000e2d73146500cfd35b22e4a392fe0adc06de1a1368ed48620004f6640100000000026401000000009004565b111562000ee25773146500cfd35b22e4a392fe0adc06de1a1368ed48600160006101000a81548173ffffffffffffffffffffffffffffffffffffffff021916908373ffffffffffffffffffffffffffffffffffffffff16021790555062000ed86040805190810160405280600b81526020017f6574685f72696e6b656279000000000000000000000000000000000000000000815250620019b7640100000000026401000000009004565b600190506200118e565b600062000f1273a2998efd205fb9d4b4963afb70778d6354ad3a41620004f6640100000000026401000000009004565b111562000fc75773a2998efd205fb9d4b4963afb70778d6354ad3a41600160006101000a81548173ffffffffffffffffffffffffffffffffffffffff021916908373ffffffffffffffffffffffffffffffffffffffff16021790555062000fbd6040805190810160405280600a81526020017f6574685f676f65726c6900000000000000000000000000000000000000000000815250620019b7640100000000026401000000009004565b600190506200118e565b600062000ff7736f485c8bf6fc43ea212e93bbf8ce046c7f1cb475620004f6640100000000026401000000009004565b11156200105d57736f485c8bf6fc43ea212e93bbf8ce046c7f1cb475600160006101000a81548173ffffffffffffffffffffffffffffffffffffffff021916908373ffffffffffffffffffffffffffffffffffffffff160217905550600190506200118e565b60006200108d7320e12a1f859b3feae5fb2a0a32c18f5a65555bbf620004f6640100000000026401000000009004565b1115620010f3577320e12a1f859b3feae5fb2a0a32c18f5a65555bbf600160006101000a81548173ffffffffffffffffffffffffffffffffffffffff021916908373ffffffffffffffffffffffffffffffffffffffff160217905550600190506200118e565b6000620011237351efaf4c8b3c9afbd5ab9f4bbc82784ab6ef8faa620004f6640100000000026401000000009004565b111562001189577351efaf4c8b3c9afbd5ab9f4bbc82784ab6ef8faa600160006101000a81548173ffffffffffffffffffffffffffffffffffffffff021916908373ffffffffffffffffffffffffffffffffffffffff160217905550600190506200118e565b600090505b90565b60008073ffffffffffffffffffffffffffffffffffffffff16600160009054906101000a900473ffffffffffffffffffffffffffffffffffffffff1673ffffffffffffffffffffffffffffffffffffffff1614806200122b5750600062001229600160009054906101000a900473ffffffffffffffffffffffffffffffffffffffff16620004f6640100000000026401000000009004565b145b156200124e576200124c600062000501640100000000026401000000009004565b505b600160009054906101000a900473ffffffffffffffffffffffffffffffffffffffff1673ffffffffffffffffffffffffffffffffffffffff166338cc48316040518163ffffffff167c0100000000000000000000000000000000000000000000000000000000028152600401602060405180830381600087803b158015620012d557600080fd5b505af1158015620012ea573d6000803e3d6000fd5b505050506040513d60208110156200130157600080fd5b810190808051906020019092919050505073ffffffffffffffffffffffffffffffffffffffff166000809054906101000a900473ffffffffffffffffffffffffffffffffffffffff1673ffffffffffffffffffffffffffffffffffffffff161415156200146c57600160009054906101000a900473ffffffffffffffffffffffffffffffffffffffff1673ffffffffffffffffffffffffffffffffffffffff166338cc48316040518163ffffffff167c0100000000000000000000000000000000000000000000000000000000028152600401602060405180830381600087803b158015620013ef57600080fd5b505af115801562001404573d6000803e3d6000fd5b505050506040513d60208110156200141b57600080fd5b81019080805190602001909291905050506000806101000a81548173ffffffffffffffffffffffffffffffffffffffff021916908373ffffffffffffffffffffffffffffffffffffffff1602179055505b6000809054906101000a900473ffffffffffffffffffffffffffffffffffffffff1673ffffffffffffffffffffffffffffffffffffffff1663abaa5f3e6040518163ffffffff167c010000000000000000000000000000000000000000000000000000000002815260040160206040518083038186803b158015620014f057600080fd5b505afa15801562001505573d6000803e3d6000fd5b505050506040513d60208110156200151c57600080fd5b8101908080519060200190929190505050905090565b606060008285019050808451101515156200154c57600080fd5b600086602001905060008460200190505b8688602001018210156200158757818901518082880152506020820191506020810190506200155d565b85935050505095945050505050565b60008073ffffffffffffffffffffffffffffffffffffffff16600160009054906101000a900473ffffffffffffffffffffffffffffffffffffffff1673ffffffffffffffffffffffffffffffffffffffff16148062001630575060006200162e600160009054906101000a900473ffffffffffffffffffffffffffffffffffffffff16620004f6640100000000026401000000009004565b145b15620016535762001651600062000501640100000000026401000000009004565b505b600160009054906101000a900473ffffffffffffffffffffffffffffffffffffffff1673ffffffffffffffffffffffffffffffffffffffff166338cc48316040518163ffffffff167c0100000000000000000000000000000000000000000000000000000000028152600401602060405180830381600087803b158015620016da57600080fd5b505af1158015620016ef573d6000803e3d6000fd5b505050506040513d60208110156200170657600080fd5b810190808051906020019092919050505073ffffffffffffffffffffffffffffffffffffffff166000809054906101000a900473ffffffffffffffffffffffffffffffffffffffff1673ffffffffffffffffffffffffffffffffffffffff161415156200187157600160009054906101000a900473ffffffffffffffffffffffffffffffffffffffff1673ffffffffffffffffffffffffffffffffffffffff166338cc48316040518163ffffffff167c0100000000000000000000000000000000000000000000000000000000028152600401602060405180830381600087803b158015620017f457600080fd5b505af115801562001809573d6000803e3d6000fd5b505050506040513d60208110156200182057600080fd5b81019080805190602001909291905050506000806101000a81548173ffffffffffffffffffffffffffffffffffffffff021916908373ffffffffffffffffffffffffffffffffffffffff1602179055505b60606004604051908082528060200260200182016040528015620018aa57816020015b6060815260200190600190039081620018945790505b509050836000600481101515620018bd57fe5b6020020151816000815181101515620018d257fe5b90602001906020020181905250836001600481101515620018ef57fe5b60200201518160018151811015156200190457fe5b906020019060200201819052508360026004811015156200192157fe5b60200201518160028151811015156200193657fe5b906020019060200201819052508360036004811015156200195357fe5b60200201518160038151811015156200196857fe5b9060200190602002018190525062001991858285620019d3640100000000026401000000009004565b9150509392505050565b8060036000848152602001908152602001600020819055505050565b8060029080519060200190620019cf92919062002628565b5050565b60008073ffffffffffffffffffffffffffffffffffffffff16600160009054906101000a900473ffffffffffffffffffffffffffffffffffffffff1673ffffffffffffffffffffffffffffffffffffffff16148062001a6d5750600062001a6b600160009054906101000a900473ffffffffffffffffffffffffffffffffffffffff16620004f6640100000000026401000000009004565b145b1562001a905762001a8e600062000501640100000000026401000000009004565b505b600160009054906101000a900473ffffffffffffffffffffffffffffffffffffffff1673ffffffffffffffffffffffffffffffffffffffff166338cc48316040518163ffffffff167c0100000000000000000000000000000000000000000000000000000000028152600401602060405180830381600087803b15801562001b1757600080fd5b505af115801562001b2c573d6000803e3d6000fd5b505050506040513d602081101562001b4357600080fd5b810190808051906020019092919050505073ffffffffffffffffffffffffffffffffffffffff166000809054906101000a900473ffffffffffffffffffffffffffffffffffffffff1673ffffffffffffffffffffffffffffffffffffffff1614151562001cae57600160009054906101000a900473ffffffffffffffffffffffffffffffffffffffff1673ffffffffffffffffffffffffffffffffffffffff166338cc48316040518163ffffffff167c0100000000000000000000000000000000000000000000000000000000028152600401602060405180830381600087803b15801562001c3157600080fd5b505af115801562001c46573d6000803e3d6000fd5b505050506040513d602081101562001c5d57600080fd5b81019080805190602001909291905050506000806101000a81548173ffffffffffffffffffffffffffffffffffffffff021916908373ffffffffffffffffffffffffffffffffffffffff1602179055505b60008060009054906101000a900473ffffffffffffffffffffffffffffffffffffffff1673ffffffffffffffffffffffffffffffffffffffff16632ef3accc86856040518363ffffffff167c01000000000000000000000000000000000000000000000000000000000281526004018080602001838152602001828103825284818151815260200191508051906020019080838360005b8381101562001d6257808201518184015260208101905062001d45565b50505050905090810190601f16801562001d905780820380516001836020036101000a031916815260200191505b509350505050602060405180830381600087803b15801562001db157600080fd5b505af115801562001dc6573d6000803e3d6000fd5b505050506040513d602081101562001ddd57600080fd5b81019080805190602001909291905050509050823a02670de0b6b3a76400000181111562001e1357600060010291505062001fee565b606062001e2f8562001ff5640100000000026401000000009004565b90506000809054906101000a900473ffffffffffffffffffffffffffffffffffffffff1673ffffffffffffffffffffffffffffffffffffffff1663c55c1cb68360008985896040518663ffffffff167c0100000000000000000000000000000000000000000000000000000000028152600401808581526020018060200180602001848152602001838103835286818151815260200191508051906020019080838360005b8381101562001ef157808201518184015260208101905062001ed4565b50505050905090810190601f16801562001f1f5780820380516001836020036101000a031916815260200191505b50838103825285818151815260200191508051906020019080838360005b8381101562001f5a57808201518184015260208101905062001f3d565b50505050905090810190601f16801562001f885780820380516001836020036101000a031916815260200191505b5096505050505050506020604051808303818588803b15801562001fab57600080fd5b505af115801562001fc0573d6000803e3d6000fd5b50505050506040513d602081101562001fd857600080fd5b8101908080519060200190929190505050925050505b9392505050565b606062002010620020e1640100000000026401000000009004565b6200201a620026af565b6200203c81610400620020ed64010000000002620035cc176401000000009004565b6200205b8162002140640100000000026200361c176401000000009004565b60008090505b8351811015620020b457620020a684828151811015156200207e57fe5b90602001906020020151836200215f640100000000026200362a179091906401000000009004565b808060010191505062002061565b50620020d481620021a5640100000000026200364f176401000000009004565b8060000151915050919050565b60405180590338823950565b600081905060006020828115156200210157fe5b0614151562002120576020818115156200211757fe5b06602003810190505b808360200181815250506040518084526000815281810160405250505050565b6200215c816004620021c4640100000000026401000000009004565b50565b6200217d8260028351620021f8640100000000026401000000009004565b620021a08183620023ea64010000000002620037da179091906401000000009004565b505050565b620021c1816007620021c4640100000000026401000000009004565b50565b620021f4601f60058360ff169060020a021783620024be6401000000000262003887179091906401000000009004565b5050565b6017811115156200223b57620022358160058460ff169060020a0260ff161784620024be6401000000000262003887179091906401000000009004565b620023e5565b60ff81111515620022a35762002276601860058460ff169060020a021784620024be6401000000000262003887179091906401000000009004565b6200229c816001856200251064010000000002620038c717909291906401000000009004565b50620023e4565b61ffff811115156200230c57620022df601960058460ff169060020a021784620024be6401000000000262003887179091906401000000009004565b62002305816002856200251064010000000002620038c717909291906401000000009004565b50620023e3565b63ffffffff8111151562002377576200234a601a60058460ff169060020a021784620024be6401000000000262003887179091906401000000009004565b62002370816004856200251064010000000002620038c717909291906401000000009004565b50620023e2565b67ffffffffffffffff81111515620023e157620023b9601b60058460ff169060020a021784620024be6401000000000262003887179091906401000000009004565b620023df816008856200251064010000000002620038c717909291906401000000009004565b505b5b5b5b5b505050565b620023f4620026af565b8260200151836000015151835101111562002447576200244683600262002430866020015186516200259c640100000000026401000000009004565b02620025ba640100000000026401000000009004565b5b60008060008451905085518051602081830101945086518101825260208701935050505b6020811015156200249257815183526020830192506020820191506020810390506200246b565b60006001826020036101000a039050801983511681855116818117865250508694505050505092915050565b81602001516001836000015151011115620024f657620024f5826002846020015102620025ba640100000000026401000000009004565b5b815180516020818301018381536001820183525050505050565b6200251a620026af565b8360200151846000015151830111156200256b576200256a846002620025548760200151866200259c640100000000026401000000009004565b02620025ba640100000000026401000000009004565b5b60006001836101000a0390508451805184818301018684198251161781528582018352505050849150509392505050565b600081831115620025b057829050620025b4565b8190505b92915050565b606082600001519050620025de8383620020ed640100000000026401000000009004565b620025f98382620023ea640100000000026401000000009004565b50505050565b6080604051908101604052806004905b60608152602001906001900390816200260f5790505090565b828054600181600116156101000203166002900490600052602060002090601f016020900481019282601f106200266b57805160ff19168380011785556200269c565b828001600101855582156200269c579182015b828111156200269b5782518255916020019190600101906200267e565b5b509050620026ab9190620026c9565b5090565b604080519081016040528060608152602001600081525090565b620026ee91905b80821115620026ea576000816000905550600101620026d0565b5090565b90565b613a8080620027016000396000f3fe608060405260043610610062576000357c0100000000000000000000000000000000000000000000000000000000900463ffffffff16806327dc297e1461006757806338bbfa50146101395780635ec01e4d146102a2578063a2e62045146102cd575b600080fd5b34801561007357600080fd5b506101376004803603604081101561008a57600080fd5b8101908080359060200190929190803590602001906401000000008111156100b157600080fd5b8201836020820111156100c357600080fd5b803590602001918460018302840111640100000000831117156100e557600080fd5b91908080601f016020809104026020016040519081016040528093929190818152602001838380828437600081840152601f19601f8201169050808301925050505050505091929192905050506102d7565b005b34801561014557600080fd5b506102a06004803603606081101561015c57600080fd5b81019080803590602001909291908035906020019064010000000081111561018357600080fd5b82018360208201111561019557600080fd5b803590602001918460018302840111640100000000831117156101b757600080fd5b91908080601f016020809104026020016040519081016040528093929190818152602001838380828437600081840152601f19601f8201169050808301925050505050505091929192908035906020019064010000000081111561021a57600080fd5b82018360208201111561022c57600080fd5b8035906020019184600183028401116401000000008311171561024e57600080fd5b91908080601f016020809104026020016040519081016040528093929190818152602001838380828437600081840152601f19601f82011690508083019250505050505050919291929050505061031a565b005b3480156102ae57600080fd5b506102b7610451565b6040518082815260200191505060405180910390f35b6102d5610457565b005b610316828260006040519080825280601f01601f1916602001820160405280156103105781602001600182028038833980820191505090505b5061031a565b5050565b610322610503565b73ffffffffffffffffffffffffffffffffffffffff163373ffffffffffffffffffffffffffffffffffffffff1614151561035b57600080fd5b6000610368848484610876565b60ff161415156103775761044c565b6000600160076101000a039050600081846040516020018082805190602001908083835b6020831015156103c0578051825260208201915060208101905060208303925061039b565b6001836020036101000a038019825116818451168082178552505050505050905001915050604051602081830303815290604052805190602001206001900481151561040857fe5b069050806005819055507fc13d60fe9dffdb6908d2d446cd18134373a51db0738ee04f296eeb9128121cbc816040518082815260200191505060405180910390a150505b505050565b60055481565b6000809050600062030d40905061047082600783610a8e565b507fc4dc360d0a9c0677a3379ae0a3d81e887f761e65fdf3d7e00859d1bcd3c473896040518080602001828103825260368152602001807f50726f7661626c65207175657279207761732073656e742c207374616e64696e81526020017f6720627920666f722074686520616e737765722e2e2e0000000000000000000081525060400191505060405180910390a15050565b60008073ffffffffffffffffffffffffffffffffffffffff16600160009054906101000a900473ffffffffffffffffffffffffffffffffffffffff1673ffffffffffffffffffffffffffffffffffffffff16148061058b57506000610589600160009054906101000a900473ffffffffffffffffffffffffffffffffffffffff1661105c565b145b1561059c5761059a6000611067565b505b600160009054906101000a900473ffffffffffffffffffffffffffffffffffffffff1673ffffffffffffffffffffffffffffffffffffffff166338cc48316040518163ffffffff167c0100000000000000000000000000000000000000000000000000000000028152600401602060405180830381600087803b15801561062257600080fd5b505af1158015610636573d6000803e3d6000fd5b505050506040513d602081101561064c57600080fd5b810190808051906020019092919050505073ffffffffffffffffffffffffffffffffffffffff166000809054906101000a900473ffffffffffffffffffffffffffffffffffffffff1673ffffffffffffffffffffffffffffffffffffffff161415156107b357600160009054906101000a900473ffffffffffffffffffffffffffffffffffffffff1673ffffffffffffffffffffffffffffffffffffffff166338cc48316040518163ffffffff167c0100000000000000000000000000000000000000000000000000000000028152600401602060405180830381600087803b15801561073857600080fd5b505af115801561074c573d6000803e3d6000fd5b505050506040513d602081101561076257600080fd5b81019080805190602001909291905050506000806101000a81548173ffffffffffffffffffffffffffffffffffffffff021916908373ffffffffffffffffffffffffffffffffffffffff1602179055505b6000809054906101000a900473ffffffffffffffffffffffffffffffffffffffff1673ffffffffffffffffffffffffffffffffffffffff1663c281d19e6040518163ffffffff167c010000000000000000000000000000000000000000000000000000000002815260040160206040518083038186803b15801561083657600080fd5b505afa15801561084a573d6000803e3d6000fd5b505050506040513d602081101561086057600080fd5b8101908080519060200190929190505050905090565b60007f4c000000000000000000000000000000000000000000000000000000000000008260008151811015156108a857fe5b9060200101517f010000000000000000000000000000000000000000000000000000000000000090047f0100000000000000000000000000000000000000000000000000000000000000027effffffffffffffffffffffffffffffffffffffffffffffffffffffffffffff19161415806109bd57507f500000000000000000000000000000000000000000000000000000000000000082600181518110151561094d57fe5b9060200101517f010000000000000000000000000000000000000000000000000000000000000090047f0100000000000000000000000000000000000000000000000000000000000000027effffffffffffffffffffffffffffffffffffffffffffffffffffffffffffff191614155b80610a4b5750600160ff168260028151811015156109d757fe5b9060200101517f010000000000000000000000000000000000000000000000000000000000000090047f0100000000000000000000000000000000000000000000000000000000000000027f0100000000000000000000000000000000000000000000000000000000000000900460ff1614155b15610a595760019050610a87565b6000610a6e838686610a69611078565b61111a565b9050801515610a81576002915050610a87565b60009150505b9392505050565b60008083118015610aa0575060208311155b1515610aab57600080fd5b600a84029350606060016040519080825280601f01601f191660200182016040528015610ae75781602001600182028038833980820191505090505b509050837f010000000000000000000000000000000000000000000000000000000000000002816000815181101515610b1c57fe5b9060200101907effffffffffffffffffffffffffffffffffffffffffffffffffffffffffffff1916908160001a905350606060206040519080825280601f01601f191660200182016040528015610b825781602001600182028038833980820191505090505b509050606060206040519080825280601f01601f191660200182016040528015610bbb5781602001600182028038833980820191505090505b5090506000610bc86118ff565b905060208352424118600143034018602084015260208252806020830152606060206040519080825280601f01601f191660200182016040528015610c1c5781602001600182028038833980820191505090505b509050886020820152606060086040519080825280601f01601f191660200182016040528015610c5b5781602001600182028038833980820191505090505b509050610c6e8260186008846000611c72565b50610c7761396d565b6080604051908101604052808781526020018881526020018681526020018481525090506000610cdd6040805190810160405280600681526020017f72616e646f6d0000000000000000000000000000000000000000000000000000815250838c611cd3565b9050606060086040519080825280601f01601f191660200182016040528015610d155781602001600182028038833980820191505090505b50905060208401517f0100000000000000000000000000000000000000000000000000000000000000810460278301537e01000000000000000000000000000000000000000000000000000000000000810460268301537d010000000000000000000000000000000000000000000000000000000000810460258301537c0100000000000000000000000000000000000000000000000000000000810460248301537b01000000000000000000000000000000000000000000000000000000810460238301537a0100000000000000000000000000000000000000000000000000008104602283015379010000000000000000000000000000000000000000000000000081046021830153780100000000000000000000000000000000000000000000000081046020830153506110498282856001600481101515610e5657fe5b60200201516002876000600481101515610e6c57fe5b60200201516040518082805190602001908083835b602083101515610ea65780518252602082019150602081019050602083039250610e81565b6001836020036101000a038019825116818451168082178552505050505050905001915050602060405180830381855afa158015610ee8573d6000803e3d6000fd5b5050506040513d6020811015610efd57600080fd5b8101908080519060200190929190505050876002600481101515610f1d57fe5b60200201516040516020018085805190602001908083835b602083101515610f5a5780518252602082019150602081019050602083039250610f35565b6001836020036101000a03801982511681845116808217855250505050505090500184805190602001908083835b602083101515610fad5780518252602082019150602081019050602083039250610f88565b6001836020036101000a03801982511681845116808217855250505050505090500183815260200182805190602001908083835b6020831015156110065780518252602082019150602081019050602083039250610fe1565b6001836020036101000a03801982511681845116808217855250505050505090500194505050505060405160208183030381529060405280519060200120612092565b8199505050505050505050509392505050565b6000813b9050919050565b60006110716120ae565b9050919050565b606060028054600181600116156101000203166002900480601f0160208091040260200160405190810160405280929190818152602001828054600181600116156101000203166002900480156111105780601f106110e557610100808354040283529160200191611110565b820191906000526020600020905b8154815290600101906020018083116110f357829003601f168201915b5050505050905090565b6000806020600287604581518110151561113057fe5b9060200101517f010000000000000000000000000000000000000000000000000000000000000090047f0100000000000000000000000000000000000000000000000000000000000000027f0100000000000000000000000000000000000000000000000000000000000000900460ff1601604401019050606060206040519080825280601f01601f1916602001820160405280156111de5781602001600182028038833980820191505090505b5090506111f087836020846000611c72565b50600284876040516020018083805190602001908083835b60208310151561122d5780518252602082019150602081019050602083039250611208565b6001836020036101000a038019825116818451168082178552505050505050905001828152602001925050506040516020818303038152906040526040518082805190602001908083835b60208310151561129d5780518252602082019150602081019050602083039250611278565b6001836020036101000a038019825116818451168082178552505050505050905001915050602060405180830381855afa1580156112df573d6000803e3d6000fd5b5050506040513d60208110156112f457600080fd5b810190808051906020019092919050505060405160200180828152602001915050604051602081830303815290604052805190602001208180519060200120141515611345576000925050506118f7565b60606002886001604986010181518110151561135d57fe5b9060200101517f010000000000000000000000000000000000000000000000000000000000000090047f0100000000000000000000000000000000000000000000000000000000000000027f0100000000000000000000000000000000000000000000000000000000000000900460ff16016040519080825280601f01601f1916602001820160405280156114015781602001600182028038833980820191505090505b50905061141688604985018351846000611c72565b506115456002826040518082805190602001908083835b602083101515611452578051825260208201915060208101905060208303925061142d565b6001836020036101000a038019825116818451168082178552505050505050905001915050602060405180830381855afa158015611494573d6000803e3d6000fd5b5050506040513d60208110156114a957600080fd5b8101908080519060200190929190505050878a600860208801018151811015156114cf57fe5b9060200101517f010000000000000000000000000000000000000000000000000000000000000090047f0100000000000000000000000000000000000000000000000000000000000000027f0100000000000000000000000000000000000000000000000000000000000000900460ff16612605565b151561155757600093505050506118f7565b606060296040519080825280601f01601f19166020018201604052801561158d5781602001600182028038833980820191505090505b5090506115a289602086016029846000611c72565b506060604080519080825280601f01601f1916602001820160405280156115d85781602001600182028038833980820191505090505b50905060006041845160296020890101010190506115fe8b604083036040856000611c72565b5060006002836040518082805190602001908083835b6020831015156116395780518252602082019150602081019050602083039250611614565b6001836020036101000a038019825116818451168082178552505050505050905001915050602060405180830381855afa15801561167b573d6000803e3d6000fd5b5050506040513d602081101561169057600080fd5b8101908080519060200190929190505050905083816040516020018083805190602001908083835b6020831015156116dd57805182526020820191506020810190506020830392506116b8565b6001836020036101000a0380198251168184511680821785525050505050509050018281526020019250505060405160208183030381529060405280519060200120600360008d815260200190815260200160002054141561175557600360008c815260200190815260200160002060009055611765565b60009750505050505050506118f7565b606060496040519080825280601f01601f19166020018201604052801561179b5781602001600182028038833980820191505090505b5090506117ad8d896049846000611c72565b506118586002826040518082805190602001908083835b6020831015156117e957805182526020820191506020810190506020830392506117c4565b6001836020036101000a038019825116818451168082178552505050505050905001915050602060405180830381855afa15801561182b573d6000803e3d6000fd5b5050506040513d602081101561184057600080fd5b8101908080519060200190929190505050878661271c565b151561186f576000985050505050505050506118f7565b6004600083815260200190815260200160002060009054906101000a900460ff1615156118cb576118a08d846129a0565b6004600084815260200190815260200160002060006101000a81548160ff0219169083151502179055505b6004600083815260200190815260200160002060009054906101000a900460ff16985050505050505050505b949350505050565b60008073ffffffffffffffffffffffffffffffffffffffff16600160009054906101000a900473ffffffffffffffffffffffffffffffffffffffff1673ffffffffffffffffffffffffffffffffffffffff16148061198757506000611985600160009054906101000a900473ffffffffffffffffffffffffffffffffffffffff1661105c565b145b15611998576119966000611067565b505b600160009054906101000a900473ffffffffffffffffffffffffffffffffffffffff1673ffffffffffffffffffffffffffffffffffffffff166338cc48316040518163ffffffff167c0100000000000000000000000000000000000000000000000000000000028152600401602060405180830381600087803b158015611a1e57600080fd5b505af1158015611a32573d6000803e3d6000fd5b505050506040513d6020811015611a4857600080fd5b810190808051906020019092919050505073ffffffffffffffffffffffffffffffffffffffff166000809054906101000a900473ffffffffffffffffffffffffffffffffffffffff1673ffffffffffffffffffffffffffffffffffffffff16141515611baf57600160009054906101000a900473ffffffffffffffffffffffffffffffffffffffff1673ffffffffffffffffffffffffffffffffffffffff166338cc48316040518163ffffffff167c0100000000000000000000000000000000000000000000000000000000028152600401602060405180830381600087803b158015611b3457600080fd5b505af1158015611b48573d6000803e3d6000fd5b505050506040513d6020811015611b5e57600080fd5b81019080805190602001909291905050506000806101000a81548173ffffffffffffffffffffffffffffffffffffffff021916908373ffffffffffffffffffffffffffffffffffffffff1602179055505b6000809054906101000a900473ffffffffffffffffffffffffffffffffffffffff1673ffffffffffffffffffffffffffffffffffffffff1663abaa5f3e6040518163ffffffff167c010000000000000000000000000000000000000000000000000000000002815260040160206040518083038186803b158015611c3257600080fd5b505afa158015611c46573d6000803e3d6000fd5b505050506040513d6020811015611c5c57600080fd5b8101908080519060200190929190505050905090565b60606000828501905080845110151515611c8b57600080fd5b600086602001905060008460200190505b868860200101821015611cc45781890151808288015250602082019150602081019050611c9c565b85935050505095945050505050565b60008073ffffffffffffffffffffffffffffffffffffffff16600160009054906101000a900473ffffffffffffffffffffffffffffffffffffffff1673ffffffffffffffffffffffffffffffffffffffff161480611d5b57506000611d59600160009054906101000a900473ffffffffffffffffffffffffffffffffffffffff1661105c565b145b15611d6c57611d6a6000611067565b505b600160009054906101000a900473ffffffffffffffffffffffffffffffffffffffff1673ffffffffffffffffffffffffffffffffffffffff166338cc48316040518163ffffffff167c0100000000000000000000000000000000000000000000000000000000028152600401602060405180830381600087803b158015611df257600080fd5b505af1158015611e06573d6000803e3d6000fd5b505050506040513d6020811015611e1c57600080fd5b810190808051906020019092919050505073ffffffffffffffffffffffffffffffffffffffff166000809054906101000a900473ffffffffffffffffffffffffffffffffffffffff1673ffffffffffffffffffffffffffffffffffffffff16141515611f8357600160009054906101000a900473ffffffffffffffffffffffffffffffffffffffff1673ffffffffffffffffffffffffffffffffffffffff166338cc48316040518163ffffffff167c0100000000000000000000000000000000000000000000000000000000028152600401602060405180830381600087803b158015611f0857600080fd5b505af1158015611f1c573d6000803e3d6000fd5b505050506040513d6020811015611f3257600080fd5b81019080805190602001909291905050506000806101000a81548173ffffffffffffffffffffffffffffffffffffffff021916908373ffffffffffffffffffffffffffffffffffffffff1602179055505b60606004604051908082528060200260200182016040528015611fba57816020015b6060815260200190600190039081611fa55790505b509050836000600481101515611fcc57fe5b6020020151816000815181101515611fe057fe5b90602001906020020181905250836001600481101515611ffc57fe5b602002015181600181518110151561201057fe5b9060200190602002018190525083600260048110151561202c57fe5b602002015181600281518110151561204057fe5b9060200190602002018190525083600360048110151561205c57fe5b602002015181600381518110151561207057fe5b90602001906020020181905250612088858285612f09565b9150509392505050565b8060036000848152602001908152602001600020819055505050565b6000806120ce731d3b2638a7cc9f2cb3d298a3da7a90b67e5506ed61105c565b111561217057731d3b2638a7cc9f2cb3d298a3da7a90b67e5506ed600160006101000a81548173ffffffffffffffffffffffffffffffffffffffff021916908373ffffffffffffffffffffffffffffffffffffffff1602179055506121676040805190810160405280600b81526020017f6574685f6d61696e6e65740000000000000000000000000000000000000000008152506134de565b60019050612602565b600061218f73c03a2615d5efaf5f49f60b7bb6583eaec212fdf161105c565b11156122315773c03a2615d5efaf5f49f60b7bb6583eaec212fdf1600160006101000a81548173ffffffffffffffffffffffffffffffffffffffff021916908373ffffffffffffffffffffffffffffffffffffffff1602179055506122286040805190810160405280600c81526020017f6574685f726f707374656e3300000000000000000000000000000000000000008152506134de565b60019050612602565b600061225073b7a07bcf2ba2f2703b24c0691b5278999c59ac7e61105c565b11156122f25773b7a07bcf2ba2f2703b24c0691b5278999c59ac7e600160006101000a81548173ffffffffffffffffffffffffffffffffffffffff021916908373ffffffffffffffffffffffffffffffffffffffff1602179055506122e96040805190810160405280600981526020017f6574685f6b6f76616e00000000000000000000000000000000000000000000008152506134de565b60019050612602565b600061231173146500cfd35b22e4a392fe0adc06de1a1368ed4861105c565b11156123b35773146500cfd35b22e4a392fe0adc06de1a1368ed48600160006101000a81548173ffffffffffffffffffffffffffffffffffffffff021916908373ffffffffffffffffffffffffffffffffffffffff1602179055506123aa6040805190810160405280600b81526020017f6574685f72696e6b6562790000000000000000000000000000000000000000008152506134de565b60019050612602565b60006123d273a2998efd205fb9d4b4963afb70778d6354ad3a4161105c565b11156124745773a2998efd205fb9d4b4963afb70778d6354ad3a41600160006101000a81548173ffffffffffffffffffffffffffffffffffffffff021916908373ffffffffffffffffffffffffffffffffffffffff16021790555061246b6040805190810160405280600a81526020017f6574685f676f65726c69000000000000000000000000000000000000000000008152506134de565b60019050612602565b6000612493736f485c8bf6fc43ea212e93bbf8ce046c7f1cb47561105c565b11156124f757736f485c8bf6fc43ea212e93bbf8ce046c7f1cb475600160006101000a81548173ffffffffffffffffffffffffffffffffffffffff021916908373ffffffffffffffffffffffffffffffffffffffff16021790555060019050612602565b60006125167320e12a1f859b3feae5fb2a0a32c18f5a65555bbf61105c565b111561257a577320e12a1f859b3feae5fb2a0a32c18f5a65555bbf600160006101000a81548173ffffffffffffffffffffffffffffffffffffffff021916908373ffffffffffffffffffffffffffffffffffffffff16021790555060019050612602565b60006125997351efaf4c8b3c9afbd5ab9f4bbc82784ab6ef8faa61105c565b11156125fd577351efaf4c8b3c9afbd5ab9f4bbc82784ab6ef8faa600160006101000a81548173ffffffffffffffffffffffffffffffffffffffff021916908373ffffffffffffffffffffffffffffffffffffffff16021790555060019050612602565b600090505b90565b6000806001905082845114151561261b57600080fd5b60008090505b8381101561271057848181518110151561263757fe5b9060200101517f010000000000000000000000000000000000000000000000000000000000000090047f0100000000000000000000000000000000000000000000000000000000000000027effffffffffffffffffffffffffffffffffffffffffffffffffffffffffffff191686826020811015156126b257fe5b1a7f0100000000000000000000000000000000000000000000000000000000000000027effffffffffffffffffffffffffffffffffffffffffffffffffffffffffffff191614151561270357600091505b8080600101915050612621565b50809150509392505050565b6000806000806000606060206040519080825280601f01601f19166020018201604052801561275a5781602001600182028038833980820191505090505b5090506000602089600381518110151561277057fe5b9060200101517f010000000000000000000000000000000000000000000000000000000000000090047f0100000000000000000000000000000000000000000000000000000000000000027f0100000000000000000000000000000000000000000000000000000000000000900460ff160360040190506127f689826020856000611c72565b9150606060206040519080825280601f01601f19166020018201604052801561282e5781602001600182028038833980820191505090505b5090506022820191506128cc8a60208c6001860381518110151561284e57fe5b9060200101517f010000000000000000000000000000000000000000000000000000000000000090047f0100000000000000000000000000000000000000000000000000000000000000027f0100000000000000000000000000000000000000000000000000000000000000900460ff160384016020846000611c72565b905060208301519450602081015193506128e98b601b87876134f8565b80975081985050508573ffffffffffffffffffffffffffffffffffffffff1689805190602001206001900473ffffffffffffffffffffffffffffffffffffffff161415612940576001975050505050505050612999565b61294d8b601c87876134f8565b80975081985050508573ffffffffffffffffffffffffffffffffffffffff1689805190602001206001900473ffffffffffffffffffffffffffffffffffffffff16149750505050505050505b9392505050565b6000806060600285600186018151811015156129b857fe5b9060200101517f010000000000000000000000000000000000000000000000000000000000000090047f0100000000000000000000000000000000000000000000000000000000000000027f0100000000000000000000000000000000000000000000000000000000000000900460ff16016040519080825280601f01601f191660200182016040528015612a5c5781602001600182028038833980820191505090505b509050612a6e85858351846000611c72565b506060604080519080825280601f01601f191660200182016040528015612aa45781602001600182028038833980820191505090505b509050612ab78660046040846000611c72565b50606060626040519080825280601f01601f191660200182016040528015612aee5781602001600182028038833980820191505090505b50905060017f010000000000000000000000000000000000000000000000000000000000000002816000815181101515612b2457fe5b9060200101907effffffffffffffffffffffffffffffffffffffffffffffffffffffffffffff1916908160001a905350612b6687604188036041846001611c72565b5060606040805190810160405280602081526020017ffd94fa71bc0ba10d39d464d0d8f465efeef0a2764e3887fcc9df41ded20f505c8152509050612bb18160006020856042611c72565b50612c5c6002836040518082805190602001908083835b602083101515612bed5780518252602082019150602081019050602083039250612bc8565b6001836020036101000a038019825116818451168082178552505050505050905001915050602060405180830381855afa158015612c2f573d6000803e3d6000fd5b5050506040513d6020811015612c4457600080fd5b8101908080519060200190929190505050858561271c565b9450841515612c7357600095505050505050612f03565b60608060405190810160405280604081526020017f7fb956469c5c9b89840d55b43537e66a98dd4811ea0a27224272c2e5622911e881526020017f537a2f8e86a46baec82864e98dd01e9ccc2f8bc5dfc9cbe5a91a290498dd96e48152509050606060426040519080825280601f01601f191660200182016040528015612d095781602001600182028038833980820191505090505b50905060fe7f010000000000000000000000000000000000000000000000000000000000000002816000815181101515612d3f57fe5b9060200101907effffffffffffffffffffffffffffffffffffffffffffffffffffffffffffff1916908160001a905350612d7f8a60036041846001611c72565b50606060028b6045815181101515612d9357fe5b9060200101517f010000000000000000000000000000000000000000000000000000000000000090047f0100000000000000000000000000000000000000000000000000000000000000027f0100000000000000000000000000000000000000000000000000000000000000900460ff16016040519080825280601f01601f191660200182016040528015612e375781602001600182028038833980820191505090505b509050612e4a8b60448351846000611c72565b50612ef56002836040518082805190602001908083835b602083101515612e865780518252602082019150602081019050602083039250612e61565b6001836020036101000a038019825116818451168082178552505050505050905001915050602060405180830381855afa158015612ec8573d6000803e3d6000fd5b5050506040513d6020811015612edd57600080fd5b8101908080519060200190929190505050828561271c565b975087985050505050505050505b92915050565b60008073ffffffffffffffffffffffffffffffffffffffff16600160009054906101000a900473ffffffffffffffffffffffffffffffffffffffff1673ffffffffffffffffffffffffffffffffffffffff161480612f9157506000612f8f600160009054906101000a900473ffffffffffffffffffffffffffffffffffffffff1661105c565b145b15612fa257612fa06000611067565b505b600160009054906101000a900473ffffffffffffffffffffffffffffffffffffffff1673ffffffffffffffffffffffffffffffffffffffff166338cc48316040518163ffffffff167c0100000000000000000000000000000000000000000000000000000000028152600401602060405180830381600087803b15801561302857600080fd5b505af115801561303c573d6000803e3d6000fd5b505050506040513d602081101561305257600080fd5b810190808051906020019092919050505073ffffffffffffffffffffffffffffffffffffffff166000809054906101000a900473ffffffffffffffffffffffffffffffffffffffff1673ffffffffffffffffffffffffffffffffffffffff161415156131b957600160009054906101000a900473ffffffffffffffffffffffffffffffffffffffff1673ffffffffffffffffffffffffffffffffffffffff166338cc48316040518163ffffffff167c0100000000000000000000000000000000000000000000000000000000028152600401602060405180830381600087803b15801561313e57600080fd5b505af1158015613152573d6000803e3d6000fd5b505050506040513d602081101561316857600080fd5b81019080805190602001909291905050506000806101000a81548173ffffffffffffffffffffffffffffffffffffffff021916908373ffffffffffffffffffffffffffffffffffffffff1602179055505b60008060009054906101000a900473ffffffffffffffffffffffffffffffffffffffff1673ffffffffffffffffffffffffffffffffffffffff16632ef3accc86856040518363ffffffff167c01000000000000000000000000000000000000000000000000000000000281526004018080602001838152602001828103825284818151815260200191508051906020019080838360005b8381101561326b578082015181840152602081019050613250565b50505050905090810190601f1680156132985780820380516001836020036101000a031916815260200191505b509350505050602060405180830381600087803b1580156132b857600080fd5b505af11580156132cc573d6000803e3d6000fd5b505050506040513d60208110156132e257600080fd5b81019080805190602001909291905050509050823a02670de0b6b3a7640000018111156133165760006001029150506134d7565b60606133218561353c565b90506000809054906101000a900473ffffffffffffffffffffffffffffffffffffffff1673ffffffffffffffffffffffffffffffffffffffff1663c55c1cb68360008985896040518663ffffffff167c0100000000000000000000000000000000000000000000000000000000028152600401808581526020018060200180602001848152602001838103835286818151815260200191508051906020019080838360005b838110156133e15780820151818401526020810190506133c6565b50505050905090810190601f16801561340e5780820380516001836020036101000a031916815260200191505b50838103825285818151815260200191508051906020019080838360005b8381101561344757808201518184015260208101905061342c565b50505050905090810190601f1680156134745780820380516001836020036101000a031916815260200191505b5096505050505050506020604051808303818588803b15801561349657600080fd5b505af11580156134aa573d6000803e3d6000fd5b50505050506040513d60208110156134c157600080fd5b8101908080519060200190929190505050925050505b9392505050565b80600290805190602001906134f4929190613995565b5050565b60008060008060405188815287602082015286604082015285606082015260208160808360006001610bb8f192508051915050818193509350505094509492505050565b60606135466135c0565b61354e613a15565b61355a816104006135cc565b6135638161361c565b60008090505b83518110156135a95761359c848281518110151561358357fe5b906020019060200201518361362a90919063ffffffff16565b8080600101915050613569565b506135b38161364f565b8060000151915050919050565b60405180590338823950565b600081905060006020828115156135df57fe5b061415156135fc576020818115156135f357fe5b06602003810190505b808360200181815250506040518084526000815281810160405250505050565b61362781600461365d565b50565b6136378260028351613681565b61364a81836137da90919063ffffffff16565b505050565b61365a81600761365d565b50565b61367d601f60058360ff169060020a02178361388790919063ffffffff16565b5050565b6017811115156136b2576136ad8160058460ff169060020a0260ff16178461388790919063ffffffff16565b6137d5565b60ff811115156136f8576136dc601860058460ff169060020a02178461388790919063ffffffff16565b6136f2816001856138c79092919063ffffffff16565b506137d4565b61ffff8111151561373f57613723601960058460ff169060020a02178461388790919063ffffffff16565b613739816002856138c79092919063ffffffff16565b506137d3565b63ffffffff811115156137885761376c601a60058460ff169060020a02178461388790919063ffffffff16565b613782816004856138c79092919063ffffffff16565b506137d2565b67ffffffffffffffff811115156137d1576137b9601b60058460ff169060020a02178461388790919063ffffffff16565b6137cf816008856138c79092919063ffffffff16565b505b5b5b5b5b505050565b6137e2613a15565b826020015183600001515183510111156138125761381183600261380b8660200151865161392e565b0261394a565b5b60008060008451905085518051602081830101945086518101825260208701935050505b60208110151561385b5781518352602083019250602082019150602081039050613836565b60006001826020036101000a039050801983511681855116818117865250508694505050505092915050565b816020015160018360000151510111156138ad576138ac82600284602001510261394a565b5b815180516020818301018381536001820183525050505050565b6138cf613a15565b8360200151846000015151830111156138fd576138fc8460026138f687602001518661392e565b0261394a565b5b60006001836101000a0390508451805184818301018684198251161781528582018352505050849150509392505050565b60008183111561394057829050613944565b8190505b92915050565b60608260000151905061395d83836135cc565b61396783826137da565b50505050565b6080604051908101604052806004905b606081526020019060019003908161397d5790505090565b828054600181600116156101000203166002900490600052602060002090601f016020900481019282601f106139d657805160ff1916838001178555613a04565b82800160010185558215613a04579182015b82811115613a035782518255916020019190600101906139e8565b5b509050613a119190613a2f565b5090565b604080519081016040528060608152602001600081525090565b613a5191905b80821115613a4d576000816000905550600101613a35565b5090565b9056fea165627a7a7230582007c7e8c329a9972b2077b0766692c5807c13106059f556ca90eb88ca2576ce6d0029",
  "source": "/**\n * @notice  Provable Random Datasource Example\n *\n *          This contract uses the random-datasource to securely generate\n *          off-chain random bytes.\n *\n *          The random datasource is currently only available on the\n *          ethereum main-net & public test-nets (Ropsten, Rinkeby & Kovan).\n *\n */\npragma solidity >= 0.5.0 < 0.6.0;\n\nimport \"./provableAPI_0.5.sol\";\n\ncontract Random is usingProvable { // \"github.com/provable-things/ethereum-api/provableAPI.sol\"\n\n    uint256 constant MAX_INT_FROM_BYTE = 256;\n    uint256 constant NUM_RANDOM_BYTES_REQUESTED = 7;\n\n    event LogNewProvableQuery(string description);\n    event generatedRandomNumber(uint256 randomNumber);\n\n    constructor()\n        public\n    {\n        provable_setProof(proofType_Ledger);\n        update();\n    }\n\n    function __callback(\n        bytes32 _queryId,\n        string memory _result,\n        bytes memory _proof\n    )\n        public \n    {\n        require(msg.sender == provable_cbAddress());\n\n        if (\n            provable_randomDS_proofVerify__returnCode(\n                _queryId,\n                _result,\n                _proof\n            ) != 0\n        ) {\n            /**\n             * @notice  The proof verification has failed! Handle this case\n             *          however you see fit.\n             */\n        } else {\n            /**\n             *\n             * @notice  The proof verifiction has passed!\n             *\n             *          Let's convert the random bytes received from the query\n             *          to a `uint256`.\n             *\n             *          To do so, We define the variable `ceiling`, where\n             *          `ceiling - 1` is the highest `uint256` we want to get.\n             *          The variable `ceiling` should never be greater than:\n             *          `(MAX_INT_FROM_BYTE ^ NUM_RANDOM_BYTES_REQUESTED) - 1`.\n             *\n             *          By hashing the random bytes and casting them to a\n             *          `uint256` we can then modulo that number by our ceiling\n             *          in order to get a random number within the desired\n             *          range of [0, ceiling - 1].\n             *\n             */\n            uint256 ceiling = (MAX_INT_FROM_BYTE ** NUM_RANDOM_BYTES_REQUESTED) - 1;\n            uint256 randomNumber = uint256(keccak256(abi.encodePacked(_result))) % ceiling;\n            random = randomNumber;\n            emit generatedRandomNumber(randomNumber);\n        }\n            \n    }\n    \n    uint256 public random;\n\n    function update()\n        payable\n        public\n    {\n        uint256 QUERY_EXECUTION_DELAY = 0;\n        uint256 GAS_FOR_CALLBACK = 200000;\n        provable_newRandomDSQuery(\n            QUERY_EXECUTION_DELAY,\n            NUM_RANDOM_BYTES_REQUESTED,\n            GAS_FOR_CALLBACK\n        );\n        emit LogNewProvableQuery(\"Provable query was sent, standing by for the answer...\");\n    }\n}",
  "sourcePath": "/home/home/lottery/contracts/Random.sol",
  "compiler": {
    "name": "solc",
    "version": "0.5.0+commit.1d4f565a.Emscripten.clang"
  },
  "schemaVersion": "3.0.19",
  "updatedAt": "2019-11-28T14:28:19.689Z",
  "devdoc": {
    "methods": {
      "__callback(bytes32,string)": {
        "details": "The following `__callback` functions are just placeholders ideally     meant to be defined in child contract when proofs are used.     The function bodies simply silence compiler warnings."
      }
    }
  },
  "userdoc": {
    "methods": {}
  }
}